:020000040800F2
:10000000680400206501000855020008030200088A
:1000100000000000000000000000000000000000E0
:10002000000000000000000000000000590200086D
:100030000000000000000000570200085B020008FA
:100040000000000000000000000000007701000830
:1000500077010008770100087701000877010008A0
:100060000000000000000000000000000000000090
:100070007701000877010008770100080000000000
:100080000000000077010008000000007701000870
:1000900000000000000000000000000077010008E0
:1000A0000000000077010008000000007701000850
:1000B0000000000000000000000000000000000040
:1000C00000F002F800F03EF80CA030C80838241800
:1000D0002D18671EA246AB4654465D46AC4201D180
:1000E00000F030F87E460F3EB6460FCC0126334274
:1000F00000D0FB1A3343A246AB4618473004000039
:1001000050040000103A02D378C878C1FAD85207D8
:1001100001D330C830C101D504680C6070470000BD
:100120000023002400250026103A01D378C1FBD813
:10013000520700D330C100D50B6070471FB51FBDFB
:1001400010B510BD00F02BF81146FFF7F7FF00F0D7
:10015000B1F800F043F803B4FFF7F2FF03BC00F07E
:1001600045F800000748804707480047FEE7FEE7DC
:10017000FEE7FEE7FEE7FEE704480549034A054BB4
:10018000704700005D020008C10000086800002000
:10019000680400206800002070477047704775466B
:1001A00000F02AF8AE46050069465346C008C00074
:1001B000854618B020B5FFF7DFFF60BCB6460026C5
:1001C0000027C0C5C0C5C0C5C0C5C0C5C0C5C0C565
:1001D000C0C5403D490849008D46704710B50446EA
:1001E000C046C0462046FFF7B6FF10BD01491820A3
:1001F000ABBEFEE726000200004870470800002062
:100200007047FEE780B57D21C90000F093F8401EDD
:100210000F494860002088600520086080BDC04606
:10022000014908607047C0460000002081B00849BD
:100230000A680092401C01D30020C043009A0028A5
:1002400004D00A68D203D2171018FAD101B070474F
:1002500010E000E0704770477047704781B00F486A
:1002600001680F4A0A400F490B889A180260026819
:100270000D4B1340496CC905C909C918016001201B
:10028000C0060A4908600A48009000BF0098411E55
:1002900000910028F9D101B07047C0460410024017
:1002A0000000FFFF0001FF1FFFFF00FE08ED00E060
:1002B000E093040082B0012529021C4E3046083824
:1002C00002680A43026001684905FCD50F2000025C
:1002D0003168814331603168072081433160316882
:1002E0008906490FFBD10003316881433160104C0E
:1002F0002046FFF787FF2046FFF792FFF06A28436A
:10030000F062F06A284001900198052004072068F7
:10031000042101430820814321600225A561642056
:10032000FFF784FF606968406061F8E708100240E9
:1003300000366E0143088B421AD3002203098B4218
:1003400079D3030A8B425ED3030B8B4242D3030C57
:100350008B4227D30902FF2212BA030C8B4202D32D
:100360001212090203D0030B8B4233D31AE0D3E0FD
:10037000411A8041401C704703460B4371D4430827
:100380008B42F5D3002203098B4254D3030A8B42DC
:1003900039D3030B8B421DD3030C8B4202D39446FB
:1003A0006EE0090AC30B8B4201D3CB03C01A524142
:1003B000830B8B4201D38B03C01A5241430B8B42F8
:1003C00001D34B03C01A5241030B8B4201D30B03E1
:1003D000C01A5241C30A8B4201D3CB02C01A524108
:1003E000830A8B4201D38B02C01A5241430A8B42CB
:1003F00001D34B02C01A5241030A8B4201D30B02B4
:10040000C01A5241CDD2C3098B4201D3CB01C01ACD
:10041000524183098B4201D38B01C01A52414309D7
:100420008B4201D34B01C01A524103098B4201D3C5
:100430000B01C01A5241C3088B4201D3CB00C01A32
:10044000524183088B4201D38B00C01A52414308AA
:100450008B4201D34B00C01A5241411A5241100045
:100460007047CA0F00D04942031000D340425340A6
:1004700000229C4603098B422DD3030A8B4212D3E0
:100480008901FC2212BA030A8B420CD38901921112
:100490008B4208D3890192118B4204D3890137D052
:1004A000921100E08909C3098B4201D3CB01C01A24
:1004B000524183098B4201D38B01C01A5241430937
:1004C0008B4201D34B01C01A524103098B4201D325
:1004D0000B01C01A5241C3088B4201D3CB00C01A92
:1004E000524183088B4201D38B00C01A5241D9D2AA
:1004F00043088B4201D34B00C01A5241411A00D22B
:1005000001465241104663465B1000D3404270479B
:1005100063465B1000D3404201B50021004201D088
:10052000C9430846C046C04602BD00005005000849
:100530000000002008000000040100085805000821
:1005400008000020600400002001000800000000F6
:0805500000366E0100000000FE
:04000005080000C12E
:00000001FF
