:020000040800F2
:1000000008040020D50000088501000855010008FB
:1000100000000000000000000000000000000000E0
:10002000000000000000000000000000890100083E
:100030000000000000000000870100088B0100089C
:10004000000000000000000000000000E7000008C1
:10005000E7000008E7000008E7000008E7000008E4
:100060000000000000000000000000000000000090
:10007000E7000008E7000008E700000800000000B3
:1000800000000000E700000800000000E700000892
:10009000000000000000000000000000E700000871
:1000A00000000000E700000800000000E700000872
:1000B0000000000000000000000000000000000040
:1000C0000348854600F034F800480047E501000881
:1000D000080400200448804704480047FEE7FEE784
:1000E000FEE7FEE7FEE7FEE78D010008C10000081D
:1000F00070B50446002903D000202022012310E01F
:10010000002801D00020C043C046C0460DE025466F
:10011000D5408D4205D30D469540641B1D46954044
:1001200040191546521E002DF1DC214670BD00001D
:10013000064C0125064E05E0E36807CC2B430C3C3A
:1001400098471034B442F7D3FFF7BEFF740200089B
:1001500094020008FEE7000080B57D21C900FFF78A
:10016000C7FF401E034948600020886005200860E2
:1001700080BDC04610E000E0014908607047C046FD
:1001800000000020704770477047704781B00F48EB
:1001900001680F4A0A400F490B889A1802600268EA
:1001A0000D4B1340496CC905C909C91801600120EC
:1001B000C0060A4908600A48009000BF0098411E26
:1001C00000910028F9D101B07047C04604100240E8
:1001D0000000FFFF0001FF1FFFFF00FE08ED00E031
:1001E000E093040082B01948826B01210A438263C4
:1001F000826B0A400092009A0A07436B13434363E1
:10020000436B13400193019A0A02014608390B68B7
:1002100013430B600A685205FCD50F2109020268DE
:100220008A430260026807218A43026002689206DC
:10023000520FFBD1090302688A430260044C204636
:10024000FFF78AFF2046FFF797FFFEE708100240FE
:1002500000366E0102E008C8121F08C1002AFAD158
:1002600070477047002001E001C1121F002AFBD136
:1002700070470000980200080000002008000000FD
:1002800054020008A002000808000020000400003A
:10029000640200080000000000366E01000000004B
:04000005080000C12E
:00000001FF
