:020000040800F2
:1000000018040020D50000081B040008190400088B
:1000100000000000000000000000000000000000E0
:100020000000000000000000000000001F040008A5
:1000300000000000000000001D040008210400086A
:10004000000000000000000000000000E7000008C1
:10005000E7000008E7000008E7000008E7000008E4
:100060000000000000000000000000000000000090
:10007000E7000008E7000008E700000800000000B3
:1000800000000000E700000800000000E700000892
:10009000000000000000000000000000E700000871
:1000A00000000000E700000800000000E700000872
:1000B0000000000000000000000000000000000040
:1000C0000348854600F034F80048004781040008E2
:1000D000180400200448804704480047FEE7FEE774
:1000E000FEE7FEE7FEE7FEE729040008C10000087E
:1000F00070B50446002903D000202022012310E01F
:10010000002801D00020C043C046C0460DE025466F
:10011000D5408D4205D30D469540641B1D46954044
:1001200040191546521E002DF1DC214670BD00001D
:10013000064C0125064E05E0E36807CC2B430C3C3A
:1001400098471034B442F7D3FFF7BEFFF00400081D
:1001500010050008B0B5044600F0D2F80546601C52
:1001600002D084480068041900F0CAF8401BA0427D
:10017000FAD3B0BDF0B589B00B68002B00D1AAE06E
:100180000E465649884201D0022200E00122052194
:10019000090700278842009700D000923A46089746
:1001A0003C46039611E029434D4A5160059A641C70
:1001B00033681946E1403F1D08322546089CA41CBF
:1001C00008942C46002900D185E001252946A1404C
:1001D0000B40ECD002910794059206970493726845
:1001E0000746344610261643122E0ED11C20069ABE
:1001F00010400F268640079AD3089B00FB181A6A06
:10020000B2432669864016431E62384603273A46A3
:1002100008998A40036893436468264601973E40E4
:100220008E401E430660D643122C14D8A5402E4A99
:10023000154210D082683240039BDB68089DAB40BA
:1002400013438360E206D20F079B9A4043680299EA
:100250008B4313434360C1683140039EB268089BDF
:100260009A400A43C260E100049D069F059A079CDC
:100270009DD52346182414400F21A1401A46019B06
:100280009A43174B9A18136E8B430099A140194358
:100290001166144909687368DA0301D5294300E03F
:1002A000A943079C0F4A116051689A0301D529435D
:1002B00000E0A9430B4A516009490968DA0201D5F7
:1002C000294300E0A943064A116051689A0200D50B
:1002D00069E7A94368E709B0F0BDC04600040050D3
:1002E00000180240801802400600060042690A42D7
:1002F00002D0282281507047182281507047000098
:10030000054800687047C0461A48006802490A68F4
:10031000101808607047C0461000002080B5032008
:1003200000F008F8002801D0012080BD00F028F876
:10033000002080BDB0B505460E48016801240029A3
:1003400016D07D20C000FFF7D3FE01460A480068A2
:10035000FFF7CEFE00F046F8032D09D8002807D19C
:100360000024E0432946224600F020F803480560B7
:100370002046B0BD0400002000000020080000203E
:1003800082B009484168012211434160416811402F
:1003900001910199110702680A4302600068084050
:1003A0000090009802B070473C100240002805D42D
:1003B000032203469343094A9A1803E00C220240A1
:1003C000074BD2188007C00E8901C9B28140FF23B4
:1003D00083401068984308431060704700E400E0D1
:1003E00014ED00E0401E010E01D0012070470749C6
:1003F000074A5060074803680B40032189075918D2
:10040000016000209060072111607047FFFFFF002E
:1004100010E000E020ED00E0FEE770477047704715
:1004200080B5FFF771FF80BD81B00F4801680F4AAA
:100430000A400F490B889A18026002680D4B13405E
:10044000496CC905C909C91801600120C0060A49DB
:1004500008600A48009000BF0098411E00910028E3
:10046000F9D101B07047C046041002400000FFFF00
:100470000001FF1FFFFF00FE08ED00E0E093040015
:1004800086B0FFF74BFF0020059004900390029088
:1004900001900E480168012211430160006810407C
:1004A000009002200490039202920190009805208F
:1004B000040701A92046FFF75DFEFA20FFF74AFE78
:1004C00002212046FFF712FFF7E7C0463410024032
:1004D00002E008C8121F08C1002AFAD1704770470D
:1004E000002001E001C1121F002AFBD1704700006B
:1004F000100500080000002010000000D0040008D3
:10050000200500081000002008040000E004000896
:1005100000366E0101000000040000000000000031
:04000005080000C12E
:00000001FF
