:020000040800F2
:10000000800B0020D5000008DD000008DF0000089C
:1000100000000000000000000000000000000000E0
:10002000000000000000000000000000E1000008E7
:100030000000000000000000E3000008E5000008E8
:10004000000000000000000000000000E7000008C1
:10005000E7000008E7000008E7000008E7000008E4
:100060000000000000000000000000000000000090
:10007000E7000008490E0008E70000080000000043
:1000800000000000E700000800000000210E00084A
:10009000000000000000000000000000E700000871
:1000A00000000000E700000800000000E700000872
:1000B0000000000000000000000000000000000040
:1000C0000348854600F0B0FA004800473D19000893
:1000D000800B00200448804704480047FEE7FEE705
:1000E000FEE7FEE7FEE7FEE7C90D0008C1000008D5
:1000F000F0B51FB40646002082B0054640240191A9
:1001000000901BE0019922460F46304600F0E3F9CB
:10011000049A059B801A994110D31046194622462D
:1001200000F0C9F9361A8F410197224601200021BB
:10013000009F00F0C0F938184D4100902046641E21
:100140000028DFDC019B00982946324607B0F0BD4D
:1001500003460B439B0703D009E008C9121F08C0E0
:10016000042AFAD203E00B780370401C491C521E8B
:10017000F9D27047D2B201E00270401C491EFBD296
:1001800070470022F6E710B513460A4604461946A2
:10019000FFF7F0FF204610BDF8B502464A40D40FE5
:1001A00042004B0052085B089A4202D202460846BF
:1001B00011464A0023D0C30D4A00DDB2120EAD1A1B
:1001C000202D35DA49020126490AF6058A19002C44
:1001D00000D0524220214F1B1146B9402A4110182D
:1001E000C20D9A4221D0002C17D0012D08DCDA056F
:1001F000801AD20F8019D207DBB200F085F9F8BD62
:10020000DA05801A012340001B06C01880185A42E4
:100210008018CA0F1043490007E04908C20711437C
:10022000DA05801A80194008801800F065F9F8BDD9
:1002300061000122511A001BF7E70122D207514049
:10024000AAE70122D2075040A6E7024670B54A400D
:10025000D30FDB0740002DD04A002AD0010E140E28
:10026000000212020919400A520A8418E5010446E4
:100270005443000A120A2E045043A4194219200CB8
:10028000C543AA18120C0125AD03521C52191204C1
:100290007F39240400D0521C104301D44000491E71
:1002A000C2B20C06C0092018401C4008802A02D0A7
:1002B00003E0002070BD40084000002900DA002063
:1002C000184370BD70B502464A40D50F40004A0041
:1002D000ED0740085208002814D0002A12D0C40D9F
:1002E000D30D41020120C0055202490A520AE41A04
:1002F000091812187D34914201D3641C00E04900B2
:10030000002C01DA002070BD0023914201D3891A2C
:100310000343400849000028F7D100290AD0914240
:1003200002D10121C90705E0914201D2012101E07A
:100330000121C943E005C018401900F0DDF870BD87
:100340000122D207002800DB101A002900DB511A15
:10035000814201D801207047002070470122D20756
:10036000002800DB101A002900DB511A814201D25B
:1003700001207047002070470122D207002800DBCF
:10038000101A002900DB511A814201D30120704765
:10039000002070470122D207002800DB101A002934
:1003A00000DB511A814201D90120704700207047BB
:1003B00010B5002904DB0C460121C9074042A141C8
:1003C000002B04DB1C460123DB075242A341801AA9
:1003D000994101D3012010BD002010BD10B50029A6
:1003E00004DB0C460121C9074042A141002B04DB7C
:1003F0001C460123DB075242A341801A994101D2D6
:10040000012010BD002010BDC217C10F504010B513
:100410004018CA079623002100F076F810BDC20FDD
:10042000410040020123400ADB05D207090EC01833
:100430007F2901DA00207047962903DC9623591A98
:10044000C84001E096398840002AF4D04042704705
:10045000C20FD207400040080BD0C10D0723DB01BB
:10046000C91840020905400A1143C2084007114358
:10047000704700200146704770B50446002903D03C
:1004800000202022012310E0002801D00020C043DA
:10049000C046C0460DE02546D5408D4205D30D46E9
:1004A0009540641B1D46954040191546521E002D6F
:1004B000F1DC214670BD10B5202A04DB0146203A4C
:1004C0009140002010BD914020239C1A0346E34038
:1004D0001943904010BD10B5202A04DB0846203A8D
:1004E000D040002110BD0B46D340D0402024A21A9A
:1004F00091400843194610BD002904DA401C490008
:1005000001D140084000704770B40024050C05D1AB
:100510001024000402D1002921D01124050E01D19C
:1005200000020834050F01D10001241D850F01D1FF
:100530008000A41C002801DB4000641C002908D0B6
:1005400020252E1B0D46F540A14000D00121294356
:10055000084301061B1B000ADB1D02D5002070BCEE
:100560007047DB05181880180029F8DA401C49008C
:10057000F5D170BC400840007047420005D04200F1
:10058000120E52428A4201DB00207047C90508184A
:10059000704770B5002801DC002070BD41004002AA
:1005A0000126400AF605090E8019CA0701D140004C
:1005B000491E4D10002211463F353346CB409B1853
:1005C000D418844201D8001B1A464000491C172940
:1005D000F3DD5100814202D20021C94300E0002135
:1005E000E8058018FFF788FF70BD10B541000DD0F9
:1005F0004100090E962909DC7E290ADC07DB41024D
:1006000005D0C00F7F21C007C905401810BD0020CC
:1006100010BD9622541A20210A1B01469140E04049
:10062000FFF76AFFA04010BD064C0125064E05E00D
:10063000E36807CC2B430C3C98471034B442F7D303
:10064000FFF742FDF03B0008103C000810B5002207
:1006500096231146FFF758FF10BD000010B516484D
:10066000016801221143016014480188144843685D
:10067000144C1C400C434460110202680A4302609F
:1006800001684905FCD50F21090282688A4382600E
:10069000826807218A43826082689206520FFBD1EA
:1006A000090382688A438260074C204600F068F99B
:1006B000204600F0B3F910BD002002400001FF1FEA
:1006C0000010024000E0FFFF006CDC02FEB51446A3
:1006D0000F4601900E684D6802954E6011683046D5
:1006E000FFF7B3FD01460198FFF7A7FD0190616890
:1006F0002846FFF7AAFD01460198FFF79EFD054633
:100700003860E1683046FFF7A0FD0646A16828463C
:10071000FFF79BFD3146FFF73FFD05462169029833
:10072000FFF793FD2946FFF737FDFEBD014602683E
:100730000079002810D0002A15D04879022814D05A
:10074000012816D000281DD11F48436893434360F9
:1007500003681343036013E01B4801689143016081
:100760004168914341600020704717480368134374
:1007700002E01548036893430360436813434360F2
:10078000002000E00120897903290ED879440979F5
:1007900049008F4401020C10E6E70C494B68934373
:1007A0004B600B6813430B607047801C7047074910
:1007B0000B68934302E005490B6813430B604B68D9
:1007C00013434B607047C046801802400018024037
:1007D000FEB50190002000910C682346C3403CD038
:1007E000012383401C4036D00290234663434D686A
:1007F0001E466E4303275F4301980268BA433243A3
:100800000260FE436A1E012A05D88A685A43876837
:100810003740174387600A695A43C7683740174310
:10082000C760022D029816D1270A01D0242400E0C7
:1008300020244D6901980659002F03D07F437F4340
:100840003B4600E05B4307225A4396435D433543F2
:10085000055100990298401CBEE74868401E0128D7
:1008600006D8C968614301984268A2430A434260BE
:100870000020FEBD81B004480168009100994068E5
:100880000090009801B0704714540040F0B587B054
:100890000E4604460068012102918843206004A8A6
:1008A00000F07EF82B4906980190FFF7E5FD07461A
:1008B0003F20C54360682840384360604B2080007B
:1008C00078437D21C900FFF7D7FD234A531C0396C7
:1008D0003168994200D30746781C236A2B400343B2
:1008E00023621E4F914205D903984568002D0AD016
:1008F000192009E049000198FFF7BEFD384200D1F8
:100900000420029B0DE0032041430198FFF7B4FD52
:10091000F91C0842029B194600D001460D43D8033A
:100920002843E1690E4A0A400243E261A068FE21C1
:100930008843039A91680143A160206818432060AE
:10094000980221688143D06808432060002007B0E6
:10095000F0BDC04640420F00A0860100FC0F000021
:100960000030FFFF81B00548016802221143016099
:10097000006810400090009801B0704734100240A9
:1009800080B57D21C900FFF777FD401E034948600F
:10099000002088600520086080BDC04610E000E0AF
:1009A00010B5044600F068F820600A490A68920908
:1009B0003C231340084AD2581F231A40D04060609D
:1009C0000968890A1C220A40044989581940C8400C
:1009D000A06010BD081002401C3B00085C3B0008F2
:1009E0000B4802680B490B68120C5A40D20508D01C
:1009F000094A00684968000C4840104204D00020B1
:100A000070470120C00370474B2040027047C0462A
:100A1000041002404401FF1FFF010000014908606B
:100A20007047C0464C000020B0B50468104A114B16
:100A3000984202D0904209D103E07025AC434D6842
:100A40002C4303252D02AC43CD682C4304608C68F5
:100A5000C4620C888462984201D0904201D1097C22
:100A60000163416901220A4342610020B0BDC046D2
:100A700000200040002C014010B50B4CA0688006FF
:100A8000400F01280ED0032801D1FFF7A9FF6068AD
:100A9000C00A1C2101400648405821688904490FBA
:100AA000C84010BD014810BD0010024000366E0164
:100AB0007C3B0008F8B514460D46064622480078EF
:100AC000002801D100F006FAEFF31087012181F32D
:100AD000108830462946224600F004F887F3108833
:100AE000F8BDC046F8B514460D46182141431648D6
:100AF0004618F06A1836022810D0012815D00027B1
:100B000000281ED1304600F01DFAA04219D330460D
:100B10002946224600F0F2FA274612E030462946DE
:100B2000224600F0BDFA07460BE0304600F00AFA14
:100B30000746A04200D32746304629463A4600F0F1
:100B4000DDFA3846F8BDC04698010020F0B59FB0E8
:100B500007920E4602901E9000271C9740201B9083
:100B60000AA81A901D9731783046761C252906D0A0
:100B7000002900D117E11AA800F072FA8DE0801C5C
:100B800000253178232907D02B2907D02D2907D01C
:100B900030290AD1022104E0082102E0042100E00A
:100BA00001210D43401C761CEBE7002408973029F7
:100BB00009D3392917D80A2262435418303C401C03
:100BC0007178761CF3E72E290DD100270921CA433D
:100BD00001780B463A3B934207D30A227A435718CF
:100BE000303F401CF2E7002700E00646761C08462E
:100BF000633809280DD8C0467844007940008744FE
:100C000051574C4C4C044C4C4C04701C31780646EB
:100C1000EDE708467038082815D8C04678440079B2
:100C200040008744043A3A1E3A2E3A3A1400079A92
:100C30001068011D116001680020082300930190D5
:100C40001AA8102227E0252955D0582925D1079A1E
:100C50001068011D11600168009401951AA8102206
:100C600018E0079A1068011D1160046821780029B6
:100C700013D01AA800F0F4F9641C1D980028F5D5CB
:100C80000BE0079A1068011D11600168009401953E
:100C90001AA80A223B4600F061F91D9F002F00D4DC
:100CA00061E78DE0079A1068011D1160017862E725
:100CB000079A1068011D11600268D0171146414063
:100CC000081A069251420491012109910A2805D37C
:100CD0000A21FFF7D1FB0999491CF6E70998B842A8
:100CE00000D80997002C09D00698002801D468077D
:100CF00005D5641E03E01AA825213DE70024022142
:100D000029400596039101D0002F13D0E80711D197
:100D1000002C0FD0661EA6420CD20998A04209D220
:100D20001AA8202100F09CF91D980890002834464C
:100D3000F0D521E008980028059EAED4069800283A
:100D400004D4680704D4069804900AE02D2102E038
:100D50002B21069804901AA800F082F91D9800280B
:100D60009BD40398002809D1009401951AA80A225F
:100D700004993B4600F0F2F8059E8EE701202840DA
:100D80003843F1D1002CEFD0661EA642ECD2099870
:100D9000A042E9D21AA8302100F062F91D9800287B
:100DA0003446F1D5E8E7002F09D01C9D002D04D072
:100DB0000AA902982A46FFF77DFEEF1900E00027F6
:100DC00038461FB0F0BD000081B00F4801680F4ADF
:100DD0000A400F490B889A18026002680D4B1340B5
:100DE000496CC905C909C91801600120C0060A4932
:100DF00008600A48009000BF0098411E009100283A
:100E0000F9D101B07047C046041002400000FFFF56
:100E10000001FF1FFFFF00FE08ED00E0E09304006B
:100E200007484168C9070AD00168C90707D00121EE
:100E3000CA434260034801704178491C41707047C1
:100E40000C200040A800002013484168C90722D0A8
:100E50000168C9071FD00121C94341600F48017AC9
:100E6000012904D0022916D100210172704701889E
:100E7000C268E023D35A994209D2525C491C0180CE
:100E80000748FF2A00D01030802101607047002100
:100E90008160C160018070470C2C01407800002007
:100EA00018040050B0B57D21CD00454300F04EF947
:100EB000044600F04BF9001BA842FAD3B0BDB0B510
:100EC000044600F043F9054600F040F9401BA042FB
:100ED000FAD3B0BD10B5124CA8212046FFF751F946
:100EE0000320206160610F49A1610F48E06101208A
:100EF000800220620020A0626062E06221660B49ED
:100F000061661021A1662067E066606708A10F3165
:100F1000102804D00A782254491E401CF8E710BD5E
:100F200098010020E43B000850020020400200200D
:100F300000000000000054545220524547474553DA
:100F400000000000C2680169914201D9D04302E06B
:100F5000D24389188068081870470000F0B587B040
:100F600003931746059001260D9D0C9C01910846A0
:100F7000B84204D33946FFF77FFA761CF8E70697A4
:100F80000127039B9E4200D81E4628463840002C6D
:100F90000496029018D0002816D12020A90701D469
:100FA000054600E03025002B00D00546002C0BD074
:100FB000A64209D2059E3046294600F051F8641E2B
:100FC000F068049E0028F1D50598C06800283DD43B
:100FD0000094019D039C022C02D3641E069906E036
:100FE00028463946FFF748FA0699884201D34F430D
:100FF000F1E7059E28463946FFF73EFA044614A05D
:10100000015D304600F02CF8F068002809D47C43DC
:101010002D1B3846069C2146FFF72EFAA7420746AD
:10102000E8D202980028049E00980FD000280DD026
:10103000059D441E844209D2864207D220212846BB
:1010400000F00EF8E86800282046F2D507B0F0BDA1
:1010500030313233343536373839414243444546EE
:1010600010B5044642688368581C904201D918465E
:1010700006E02268D154A060E168491CE160626822
:10108000904208D121682069FFF714FDA1688842C9
:1010900002D10020A06010BD0020C043E06010BD60
:1010A000FEB516460D46C768002101900269BA4296
:1010B000029103D9F9435418826803E0F9435118A7
:1010C00082688C184168D21B944200D31446C81918
:1010D000B44200D3344629462246FFF739F8E719CF
:1010E000019881688F4200D100270299C760361BA2
:1010F0002D196118002ED9D10846FEBDF8B5154648
:1011000004464068A268E6688019971BAF4204D97C
:101110002A46FFF71DF8751909E00E463A46FFF713
:1011200017F8F119ED1B60682A46FFF711F8E56022
:10113000F8BD000080B504480078002800D080BDCC
:1011400000F0DAFB80BDC0469400002010B50B48CB
:1011500002460F320A49096811400A4B14CB083B7A
:10116000A14201D9521C1A60596048401106081862
:10117000110A30220023FEF7BBFF10BDF0FFFF0075
:1011800018E000E0A0000020B0B50C460546FFF7CF
:10119000DDFF401BA04201D20020B0BD0120B0BD48
:1011A000F0B58BB0FFF7DEFBFFF7DCFB0126770520
:1011B00018490869384308610869384001900624D5
:1011C0000A94099608960220079006900820059038
:1011D0000198C54805AD2946FFF7FAFA0A94102090
:1011E0000590C1482946FFF7F3FA0A4908683843D1
:1011F00008600868B843086000200490A0200390AD
:10120000B003029004480190A44801A9FFF73EFBF7
:101210000BB0F0BD2C100240801A0600172080028F
:10122000006803490870020C8A70000A4870704711
:101230008806002010B5094C00202080FFF786FFAB
:1012400001210143616010BD04480178002904D0E8
:101250004178002901D101214170704750060020DA
:10126000F0B587B01C46154604918B490A68002AE0
:10127000FCD102220A600123D902884E3268009113
:101280008A4332609902326801910A4332601A023D
:1012900031680392114331607169C907FCD005932D
:1012A000FE210690029108403169FF27B9430818D2
:1012B000306170698007FCD5FFF7DCFA70690006C1
:1012C000FCD53069B8430499C9B240183061059A19
:1012D00070694007FCD5306803990843306006996F
:1012E0007069C007FCD03069029B98431143C9B2B2
:1012F0000143316170698007FCD557023C49022CDB
:1013000009D0012C14D0002C1ED1FFF7B3FA30689D
:10131000384330601EE0306800990843306072B690
:10132000FFF7A8FA324B30681840306062B658E0D8
:1013300030680840306072B6FFF79CFA2C4B30687A
:101340003843306062B64CE0306801990843306041
:10135000FFF790FA264B44E021462846A2B2042A21
:1013600012D2012A1FD0022A25D171694907FCD562
:1013700072B63168394331603169017062B63169E2
:101380004170851C00242CE072695206FCD532693C
:1013900002704C1E451C7269520722D53269427098
:1013A0008C1E851C1DE071694906FCD531690170F0
:1013B000451C002415E072695207FCD532681A40BA
:1013C000326072B63269027072695207FCD53268B7
:1013D0003A4332603269427062B632698270CC1E22
:1013E000C51C2204B8D100202B49086007B0F0BD0D
:1013F000FFFBFFFFFEB51D4614460191264A11680A
:101400000029FCD101231360D902244E32688A439B
:1014100032600293190232680A4332607169C90767
:10142000FCD0FE2108403169FF27B943081830611C
:1014300070698007FCD5FFF71DFA70690006FCD5BE
:101440003069B843019940183061134B28041BD010
:1014500070690006FCD520783169B94308183061FD
:10146000681E611C7269520708D5020406D06078B4
:101470003169B94308183061A81EA11C726952076E
:10148000FCD50C460546E1E702984002316801436D
:10149000316000201860FEBD80060020005400402E
:1014A000002801D0014988607047C046240100200F
:1014B000F8B514460D4606460027032F12D2002E1B
:1014C00008D00120C1028E4207D08002864207D197
:1014D000A04803E00520000700E09F482946A047F8
:1014E0007F1CEAE7F8BDC0460004005049430322D0
:1014F0004A43036893430360C3689343C360C2686D
:101500000A43C260704710B50A464A430323534357
:1015100004689C43046003681343036042690A4300
:10152000426110BD42690A434261704742698A4381
:1015300042617047F0B585B00F2007020025E94EE3
:10154000554C082D07D0705BC1B238402246FFF7DA
:10155000AFFFAD1CF5E7514D28784000305A3840B8
:1015600029784900715C4E4AFFF7A2FF0020DF494D
:101570004C4A0346042809D016680C78B44301D0BD
:10158000012484402343891C401CF3E7D8B2039014
:10159000012001900027444B3A462878082F72D04A
:1015A000C0003C186968E140032631400398D040F0
:1015B000C0070ED001292FD0002958D10493154619
:1015C000FFF7C4FD2A46049B344D01210843A8605F
:1015D0004DE0481E01284AD802920493FFF7B6FD59
:1015E00000226A61EA7301210143A960287B002877
:1015F00039D0401E287329784900049B5A5A29463D
:101600000C31C0B208184178401C8A4200D069737E
:1016100000210170019129E002920493A8682349F6
:10162000FFF7B2FD00281CD00020286101200190A6
:10163000E873FFF78BFD019908436861287B02215D
:1016400001280191049B029A11D8411C2973294653
:101650000C31081829784900595C41700221019128
:1016600005E0012101E001921146049B029AA64087
:101670006868B0436860A1406868084368600833E0
:10168000BF1C521C89E7401C0321014029700198AE
:10169000C0B205B0F0BDC046251500088800002086
:1016A0002D15000810000050BC3B000830750000EC
:1016B0007CB505221207904204D0264A904203D1FD
:1016C000012008E0002006E0234A904202D00020DA
:1016D000C04300E00220032212044B1E072B09D84E
:1016E0007B441B795B009F441D030D120D0D0D15EE
:1016F000612210E0102910D0202910D0402901D1FA
:10170000164A0FE080290CD00022D2430AE0312291
:10171000120307E06322D20204E0521C02E0104AE6
:1017200000E0104A130ADBB2140CE4B29C409207AA
:10173000120F0D4D5659A6439840304350516846FC
:1017400002228271FF22023282800091FEF7EEFFB8
:101750007CBDC0460004005000080050011001008C
:1017600001080100011801006018024010B502468E
:101770009048837844780120944202D18B4200D172
:1017800010BD8C4201D19342FAD0002010BDC0465A
:1017900080B5002001F0CCFA00F0AEF880BD00006A
:1017A00010B5844C2078002822D0A068E1780A4641
:1017B000024305D1FFF7CAFC0121E1700843A06094
:1017C00001290AD1002808D00A49FFF7DDFC0028CA
:1017D00001D002200BE0A068E178022908D100289E
:1017E00006D00549FFF7D0FC002801D00320E070A7
:1017F00010BDC046C0C62D0020AA4400B0B51F4C85
:1018000020687D218901FFF7BFFC002834D0FFF755
:101810009DFC012528432060FFF78CFEFFF7C0FFE9
:10182000644CE078032818D0022819D0012821D16F
:10183000207801280CD160681149FFF7A5FC002829
:1018400005D0FFF783FC2843606000F0A1F8207802
:1018500002280FD101F0C0FB0CE0FFF799FF09E06F
:101860002078012802D100F081F82078022801D1E7
:1018700001F096FBFFF75EFCB0BDC0468406002079
:10188000400D0300F8B5B548016807220A4302601D
:101890000F2005020026134F134C082E07D0B85B0B
:1018A000C1B228402246FFF703FEB61CF5E7002729
:1018B0000E4E0F4C082F07D0F05BC1B228402246D5
:1018C000FFF7F6FDBF1CF5E700270A4C082F07D0ED
:1018D000F05BC1B228402246FFF7EAFDBF1CF5E7E6
:1018E000F8BDC046DC3B000807150008A43B000813
:1018F000ED140008B1160008014808210160704786
:101900002800005081B09548016801221143016010
:1019100000681040009000980520000701684022F0
:101920000A4380218A4302600821816201B0704726
:1019300001480821016070471800005001F065FB64
:1019400002A001F09DFA00F007F8FCE72D2D2D3ED6
:101950003E3E200D0A00000080B5FFF775FC00F048
:1019600033F9FFF74BFF01F061FA80BD80B51148F4
:1019700040780D2803D00C2806D1142000E00E205A
:10198000002101F097FA80BD00F002F880BDC0464A
:1019900070B50020074C084D102809D0461C61780E
:1019A0008E4203D1285C002101F084FA3046F3E72F
:1019B00070BDC04694000020AC3B0008F0B587B075
:1019C00003A80091417206920021084604291DD007
:1019D0000191314B595C02910726711C13D20124ED
:1019E000B44002990C400021CF43002C3D4600D169
:1019F000254683B2D554002C00D00F46D1184F7025
:101A0000761E801CE9E70199491CDFE781B2531873
:101A100000240A2C06D00021032C00D2C9431955FA
:101A2000641CF6E701460A3189B2FF23535451186A
:101A300000234B700C3000998B421DD003A90193F9
:101A4000C95C02910725691C13D20121A940029BA0
:101A500019400027FE430029344600D10C4683B2CA
:101A6000D454002900D03E46D1184E706D1E801C03
:101A7000E9E7019B5B1CDEE781B251180023052BCF
:101A800003D00024CC545B1CF9E7401DE0215052E8
:101A9000002007B0F0BDC0469C3B000880B513464F
:101AA0000A460146D620FFF7DBFB012080BD00007F
:101AB0007CB5574C204634302146403100F028F99F
:101AC000606B21464C31D14D184E2A46B0476060BC
:101AD000A06B214654312A46B047A060E06B2146F6
:101AE0005C312A46B047E060206C21466431C64D27
:101AF0002A46B0472061606C21466C312A46B047C7
:101B00006061A06C214674312A46B047A06120462E
:101B100028300190064A101D0090201D21461031EA
:101B20001C34234600F0CCFB7CBDC046CD0600082B
:101B30000400002081B009480168022211430160BD
:101B4000006810400090009805480168012319437F
:101B500091430160836201B07047C0463410024077
:101B600000040050F8B56020B62100F02DF90A20DD
:101B7000FFF798F9002000F08DF8044605281DD1E4
:101B8000022010210F4FB847032626213046B847C0
:101B900004204721B847062000252946B8470820D9
:101BA0003146B84709202946B8470A202946B84790
:101BB00013202946B84714202946B847611F4842D8
:101BC0004841F8BDC91D000870B5114E3078002895
:101BD00003D000203070FFF76BFF70780521FEF70F
:101BE0004BFC002900D070BD00207070F069FEF73A
:101BF00016FC0446306AFEF712FC0546706AFEF7D2
:101C00000EFC034603A021462A4601F039F970BDB7
:101C1000A80000202D2D2D3E3E3E20707469636883
:101C20003A256C642C726F6C6C3A256C642C79616B
:101C3000773A256C64200D0A000000007FB5044649
:101C40000025062D08D028463530C0B200F022F815
:101C500002A948556D1CF4E7684602990180039972
:101C6000818002A9498841800026094D062E0DD0A9
:101C70006846805FFEF7C8FB7321C905FEF7E5FAE9
:101C80002946FEF7E2FA01C4B61CEFE77FBDC04665
:101C90000AE81C411CB50146D62001AC01232246AE
:101CA000FFF7DEFA20781CBDF0B585B004460025AC
:101CB000062D08D028463B30C0B2FFF7EBFF03A942
:101CC00048556D1CF4E701A80399018004998180AF
:101CD00003A94988418000270B4D0C4E062F10D0D8
:101CE00001A8C05FFEF790FB0F218906FEF7ADFA51
:101CF0002946FEF7AAFA3146FEF7E4FA01C4BF1CF2
:101D0000ECE705B0F0BDC0460000204100400F44A4
:101D100010B50C46FFF792FF2046FFF7C5FF10BD38
:101D200080B500F015F8FFF705FFFFF71BFF00284F
:101D30000BD000F057F83220FFF7C1F80348FFF747
:101D4000AFFB4B208000FFF7BAF880BD9D1A00085A
:101D500070B586B06C4614212046FEF712FA0126B3
:101D6000F00314490A6802430A60002222742F23F8
:101D70002380096801400591039201920E48029068
:101D800005980E4D28462146FEF74EFEE868304382
:101D9000E860286830432860F00409490860FF20A3
:101DA000000608490A688243B0071018086006B0A8
:101DB00070BDC04640100240871300000020004064
:101DC00000E100E010E400E01CB5034601AA117038
:101DD000D620012419462346FFF70CFB2046FFF7C7
:101DE00061F81CBD10B57F20C105064C064A20468F
:101DF00001F07EF801208107044A204601F078F8BE
:101E000010BDC04600004842640000205000002081
:101E1000F0B587B00446456828462946FEF715FA0E
:101E20000646206806900146FEF70FFA3146FEF797
:101E3000B3F90746A66830463146FEF706FA39463A
:101E4000FEF7AAF901F08CFD0746CB49FEF778FAB8
:101E50000024002800D052E1C8493846FEF78CFA29
:101E6000002800D04BE130463946FEF72BFAC44C2F
:101E70000490206328463946FEF724FA0646E062BD
:101E8000069839462746FEF71DFA0446B8623F20F9
:101E9000010620460591FEF77DFA002806D1BF20F5
:101EA00001062046FEF768FA002806D10120C00787
:101EB0004440FE613C62002508E00020F861049C7B
:101EC0003C620121C90735464D4006467D622046E9
:101ED0002146FEF7BAF9044630463146FEF7B5F919
:101EE0002146FEF759F9044628462946FEF7ADF982
:101EF0002146FEF751F901F033FD0546F869294600
:101F0000FEF7E0F90690F861386A2946FEF7DAF93B
:101F100004463862786A2946FEF7D4F9049078625C
:101F2000F96A0291FEF791F90646396B0391204652
:101F3000FEF78BF93146FEF780F901903861BE6AF1
:101F400020463146FEF781F90090069D2846029909
:101F5000FEF77BF90099FEF770F9B86104983146F5
:101F6000019EFEF772F904902846039D2946FEF76C
:101F70006CF901460498FEF760F9786106942046F2
:101F80002946FEF709F9014634463046FEF7E6F9E0
:101F9000002847D028462146FEF7FEF8014606985D
:101FA000FEF7DCF900286CD006982146FEF7F4F81D
:101FB00001462846FEF7D2F9002800D1A4E07F2090
:101FC000C1052046FEF7E8F801460698FEF7E4F85A
:101FD00001462846FEF7E0F801F0C2FC0599FEF73D
:101FE00034F904463860F86A796AFEF726F905463E
:101FF0008120C1052046FEF728F9044628462146DF
:10200000FEF760F9AC4EF060B869B96AFEF715F9F1
:102010002146FEF757F93061F8697D692946FEF7D8
:102020000CF95FE07F20C1052046FEF7B5F8069960
:10203000FEF703F92946FEF700F901F091FC059936
:10204000FEF703F904469C4EF060F86A796AFEF7E1
:10205000F4F805468120C1052046FEF7F6F804464F
:1020600028462146FEF72EF938607D69F969284631
:10207000FEF792F82146FEF725F93061B869B96A92
:102080002EE07F20C0052146FEF7D7F801460698CE
:10209000FEF782F82946FEF7D0F801F061FC0599B9
:1020A000FEF7D3F80446844E3061B869B96AFEF78A
:1020B000C4F805468120C1052046FEF7C6F804464F
:1020C00028462146FEF7FEF838607D69F969284602
:1020D000FEF762F82146FEF7F5F8F060786AF96AD3
:1020E000FEF75AF82146FEF7EDF870610124E0078B
:1020F000396A4140284601F067F96F4948626E48E5
:102100004470204607B0F0BD7F20C0052146FEF791
:1021100094F80699FEF791F801462846FEF73CF838
:1021200001F01EFC0599FEF790F8044662484461F0
:10213000F8697D692946FEF780F806468120C105C9
:102140002046FEF782F8044630462146FEF7BAF8EC
:102150003860B869B96AFEF71FF82146FEF7B2F891
:10216000554EF060786AF96AFEF716F82146FEF7D8
:10217000A9F83061BAE7C0460AE89C400F5C6B41A1
:1021800018000020F0B587B04B4C206905906569B8
:1021900029460695FEF759F807460290E668474932
:1021A0000968009130460196FEF74FF8044638461C
:1021B0002146FDF7F1FF0146FDF7EEFF3F49C862FA
:1021C00028463146FEF741F805460490059E304604
:1021D000009F3946FEF739F8014603902846FEF77E
:1021E0002CF80146FDF7D8FF344988620D46029865
:1021F0002146FEF722F80146FDF7CEFF6862304621
:10220000019E3146FEF721F8044606983946FEF74E
:102210001CF8074620463946FDF7BEFF0146FDF78C
:10222000BBFFE86104980399FDF7B6FF0146FDF78F
:10223000B3FFA86120463946FDF7FFFF0146FDF7D1
:10224000ABFF2F46686105980146FDF7FEFF044687
:1022500030463146FDF7F9FF064620463146FDF788
:102260009BFF0146FDF798FF01467F20C5052846E4
:10227000FDF7E3FF386306980146FDF7E6FF0746E2
:102280003146FDF789FF0146FDF786FF01462846E6
:10229000FDF7D3FF0949086220463946FDF77CFF68
:1022A0000146FDF779FF01462846FDF7C6FF0349C1
:1022B000086107B0F0BDC0462401002018000020CE
:1022C000F0B59BB01093129107461068139000264A
:1022D0001A961996189617961696159678680146C6
:1022E000FDF7B3FF044638680146FDF7AEFF21460F
:1022F000FDF752FF0446B8680146FDF7A6FF2146E8
:10230000FDF74AFF01F02CFB05463C687868149005
:102310001197BF682046394601F056F820462946F5
:10232000FDF7D0FF044614982946FDF7CBFF149023
:1023300038462946FDF7C6FF054614980146FDF7C5
:1023400084FF074620462146FDF77FFF3946FDF70B
:1023500023FF044628462946FDF777FF2146FDF76F
:102360001BFF01F0FDFA01461498FDF7ABFF00F0EA
:102370009FFF3F2001061398FDF767FF5F4FF97835
:1023800001291CD1149021980E9020980790342494
:10239000129D119E402C28D018A8001934383119EC
:1023A0003439096801603959281934380068FDF753
:1023B00044FF15A9091934390860241DEAE7387863
:1023C000002801D000F074FC012E01D900F070FC4F
:1023D000BB6800200124394622469847761C38788D
:1023E0000528EDD1FC7000F063FC139E3046FEF72B
:1023F0002FF804460D46424A424BFDF7EFFF0028F6
:1024000002D00020787075E0304600263146FDF796
:10241000A5FF002807D13A4A3B4B20462946FDF745
:10242000C7FF002803D139481390394814907878B1
:1024300000285FD00F96199E30463146FDF705FF04
:10244000044618980D900146FDF7FFFE2146FDF762
:10245000A3FE04461A9D28462946FDF7F6FE2146AE
:10246000FDF79AFE01F07CFA04462A49FDF768FF61
:10247000002853D130462146FDF724FF064606903A
:1024800028462146FDF71EFF01460590224DE86AC9
:102490000B90FDF7DAFE07462D6B30462946FDF717
:1024A000D4FE3946154FFDF7C8FE0C900D98214615
:1024B000FDF708FF044628462146FDF7C6FE0546FF
:1024C0001548866A05983146FDF7BFFE2946FDF797
:1024D000B4FE054630460699FDF7B7FE06460D9454
:1024E00020460B99FDF7B1FE3146FDF7A6FE099097
:1024F0000C9818E018A8FFF78BFCAFE1240100202E
:102500009A9999999999C93F9999B93F0AD7A33C42
:102510000AD7233CDD0C7B3F18000020059506966A
:102520000F98099005461E498C680C902146FDF7CE
:102530008CFE139E3146FDF788FEB969FDF72CFE2F
:102540000890B8610B9528462146FDF77EFE31467E
:10255000FDF77BFEF969FDF71FFE0A90F861099807
:102560002146FDF772FE3146FDF76FFE396AFDF731
:1025700013FE38620120C0070949CF683C46099024
:102580004440159D28462146FDF704FF064628468F
:102590003946FDF7E3FE00280F9804D102E0C0465B
:1025A000180000202846002E00D128461390169DC2
:1025B00028462146FDF7EEFE019028463946FDF7F4
:1025C000CDFE0090179E30462146FDF7E3FE0390B6
:1025D000049630463946FDF7C1FE0290094844682A
:1025E0000C982146FDF731FE1399FDF7D5FD014604
:1025F0000898FDF7D1FD1390009800280F9E04D194
:1026000002E0C046180000202E46019800280B98D2
:1026100000D12E462146FDF718FE3146FDF7BCFDE0
:1026200001460A98FDF7B8FD0B4E35690C90294616
:10263000FDF70BFE0446F1680B9109984840139989
:10264000FDF703FE2146FDF7F8FD07460298002836
:102650000F9904D102E0C046240100200499039898
:10266000002800D104997948406909900E460F91DD
:10267000FDF7EBFD01463846FDF7DFFD1499FDF748
:10268000E4FD0146724F3C6820460894FDF784FD46
:102690000490386030462946FDF7D7FD0A95054677
:1026A00020461399FDF7D1FD2946FDF775FD054636
:1026B00009980C9E3146FDF7C8FD01462846FDF7F6
:1026C000BCFD149F3946FDF7C0FD01460B9D284611
:1026D000FDF762FD0F9C03905C49C86030462946B7
:1026E000FDF7B3FD054608982146FDF7AEFD2946E6
:1026F000FDF752FD05460A98139E3146FDF7A5FDEC
:1027000001462846FDF799FD3946FDF79EFD014635
:10271000099F3846FDF740FD014602904B48416154
:1027200020460B99FDF791FD054608980C99FDF799
:102730008CFD2946FDF781FD044638463146FDF7FC
:1027400084FD2146FDF728FD1499FDF77EFD014625
:102750000A98FDF721FD04463C48046103980146B0
:10276000FDF773FD054604980146FDF76EFD294609
:10277000FDF712FD054620462146FDF766FD294678
:10278000FDF70AFD044602980146FDF75EFD21466D
:10279000FDF702FD01F0E4F804462D4D28682146BE
:1027A000FDF790FD28602948C0682146FDF78AFDA5
:1027B0002649C860254800692146FDF783FD234965
:1027C0000861224840692146FDF77CFD1F494861A8
:1027D000FFF7D8FC1F49059C2046FDF736FD06464D
:1027E000286B1D49FDF731FD3146FDF7D5FC01464B
:1027F0002046FDF722FDA96A1491EF6A0E9DA8609C
:10280000069E30461349FDF720FD044638460F4F1B
:102810001149FDF71AFD2146FDF7BEFC0146304681
:10282000FDF70BFD68600D9E30460A49FDF70DFD72
:10283000044614980849FDF708FD2146FDF7ACFC55
:1028400001463046FDF7F9FC286007E0240100202E
:1028500018000020CCCC4C3ECDCC4C3FF14CE06A73
:1028600000F026FD0646216BA06A00F0ADFDEE49A2
:102870000F90FDF7EAFC054601200290C007216A8F
:10288000139041406069344600F09EFD796AFDF77F
:10289000D4FC00F0CFFB0746109E7560E34D204648
:1028A0002946FDF7D2FC30600E9738462946FDF7E1
:1028B000CCFC054600273946FDF750FD0646DC49AD
:1028C0002846FDF769FC002E00D128461099886043
:1028D000D849204688471490D74E2046B0470990E3
:1028E0000F9D2846B04704462846D2498847109095
:1028F0000E9D2846B04706462846CE4988470546DD
:10290000059413984440099804942146FDF79DFCD2
:1029100006900F963146FDF798FC04461498294618
:10292000FDF793FC2146FDF737FC0446109E304628
:102930000A952946FDF789FC054608942146FDF7CE
:102940007CFC044614983146FDF77FFC0146204686
:102950000C91FDF772FC7F21C9050B91FDF71CFC62
:1029600004463946FDF7FAFC0028384600D12046D7
:102970007D21CC052146FDF768FCE64988470E908D
:1029800008982E462946FDF758FC0C99FDF755FC92
:102990000B99FDF701FC05463946FDF7DFFC0028E1
:1029A000384600D128462146FDF74FFCD9498847D3
:1029B0000D9030460899FDF7EFFB05460C98294627
:1029C000FDF73BFC0B99FDF7E7FB06463946FDF7A3
:1029D000C5FC0028384600D130462146FDF735FCBD
:1029E000CC4988470890CC480E9901400E910D992A
:1029F00001400D910C982946FDF7CEFB0B99FDF790
:102A0000CBFB05463946FDF7A9FC0C90284621462C
:102A1000FDF71BFC039014980499FDF716FC0B902E
:102A20000F99FDF712FC0446099E30460A9D29467F
:102A3000FDF70BFC2146FDF700FC044630461099DB
:102A4000FDF703FC2146FDF7A7FB04460B9829463A
:102A5000FDF7FBFB054630460F99FDF7F6FB2946CF
:102A6000FDF79AFB0599FDF7E8FB139E30400D99A1
:102A700040180D900146FDF7E8FB054634400E98DE
:102A800020180E900146FDF7E0FB2946FDF784FB78
:102A90000B90089DA048054006980A99FDF7D5FBC4
:102AA000044614980F9E3146FDF7CFFB2146FDF7F3
:102AB000C4FB044610983146FDF7C7FB2146FDF7DD
:102AC0006BFB13990840451928462946FDF7BDFBC5
:102AD0000B99FDF761FB06460C980028384600D19B
:102AE00003988C49884704460146FDF7AEFB314602
:102AF000FDF752FB87498847064620463146FDF7D9
:102B0000E1FB079CE06028463146FDF7DBFBA06057
:102B10000D983146FDF7D6FB60600E983146FDF703
:102B2000D1FB2060119D68680146FDF78EFB0446CD
:102B300028680146FDF789FB2146FDF72DFB044679
:102B4000A8680146FDF781FB2146FDF725FB714E84
:102B5000B0471490129C60680146FDF776FB05466D
:102B600020680146FDF771FB2946FDF715FB054678
:102B7000A0680146FDF769FB2946FDF70DFBB0474C
:102B800013902320C54311953E46002D12D0604876
:102B90004019416F016761484019846A44623846B0
:102BA000FDF7FAFA074630462146FDF7F5FA0646E4
:102BB0002D1DEAE75948139C446255481499016752
:102BC00008463946FDF7E8FA554F3946FDF77AFBD6
:102BD000149020463146FDF7DFFA3946FDF772FBC7
:102BE000074600264C243546742C27D04848005907
:102BF0001499FDF722FB0146FDF727FB3146FDF74F
:102C0000CBFA0646454800194C3800683946FDF7AE
:102C100014FB0146FDF719FB2946FDF7BDFA0546F1
:102C2000241DE1E718000020E12E65C2E12E654277
:102C30000000B44365360008DD370008384C3046E4
:102C40002146FDF73FFB00F08BFE06462846214655
:102C5000FDF738FB00F084FE044632493046FDF7AC
:102C60008BFB00281ED130492046FDF785FB00284C
:102C700018D1274FF86A00281CD0B878012817D03F
:102C8000BC88002C21D01E2C28D84025129E4C2D0B
:102C900033D07959701940380068FDF77DFA7851C2
:102CA0002D1DF4E700201A498862C8628880887068
:102CB0001BB0F0BDB86A1D2802D8401CB862F7E707
:102CC0000020B8620298F862F2E740204C2803D056
:102CD00000213950001DF9E702980FE01F2CE7D1C1
:102CE000119E1836114C002E0AD0BD19E86C2146F1
:102CF000FDF7E8FA2864361DF5E7601CB880D7E7D1
:102D00000020B861F8613862B8800298B870CFE7E7
:102D10002401002061390008FFFFFF7F58060020D2
:102D2000000020410AD7233D022B873C0000F041E0
:102D30005149087000224A60002800D005204870E0
:102D40007047C046F0B587B0214D2868042108437C
:102D500028602868084001900198032080031D49DD
:102D60000A6882430126B003101808608020886238
:102D700001AC14212046FDF704FAF002E968014392
:102D8000E960002727742F212180E968014006911E
:102D900004970297FF2000909030039006980E4D04
:102DA00028462146FDF740FEE8683043E860286881
:102DB0003043286070030949086000980002084900
:102DC0000A6882430A601848077207B0F0BDC0461F
:102DD0003410024000040050002C014000E100E0EB
:102DE0000CE400E0F8B5104C277A002F10D10D4606
:102DF00006460948E221FDF7C4F930462946064D4A
:102E00002A46FEF7DBFD002802D101202072E56092
:102E100078427841F8BDC0469C0600200248007AFE
:102E2000411E88417047C0467800002010B5124C02
:102E30002078002817D060681049FEF7A5F900280F
:102E40000ED029480921FFF7CDFF002808D0FEF752
:102E50007DF90121014361606078401E607000E0EF
:102E60006078000600D010BDFFF7D8FF0028FAD127
:102E70000020207010BDC04694060020A0860100EE
:102E800083B018B5044603A80EC003A80090002024
:102E90006A462146FDF75AFE18BC02BC03B008473B
:102EA000017842784A4081785140C2784A401132D4
:102EB00002717047B0B50C460546FEF739FD0A4869
:102EC0004471057109498A788271C978C171C178E4
:102ED000F0220A40511CC170001DFFF7E1FF0120E4
:102EE000FFF726FFB0BDC046880600205006002030
:102EF000FEB50292FDF7E6F901465E48FDF7E2F9FC
:102F000000F044FD04461D49FDF79FF97F21C905E6
:102F10000191FDF741F9054620462146FDF795F957
:102F200007462946FDF738F9064638463146FDF78B
:102F3000C9F9054602980561856011492046FDF7EB
:102F400084F90199FDF728F901463846FDF724F97F
:102F50003146FDF7B7F9029C60600A493846FDF733
:102F60001BF90146FDF718F93146FDF7ABF9206072
:102F700028462946FDF710F9E060FEBDF304B53F91
:102F8000F304B5BF000080BF03480449416000213D
:102F9000816005210160704710E000E0FFFFFF0045
:102FA00080B507200921FEF7E1FB002801D0F120C0
:102FB0000EE009200D21FEF7D9FB002801D0F220F8
:102FC00006E00E201021FEF7D1FB002803D01320CD
:102FD0000021FFF76FFF80BD80B507200921FEF7B4
:102FE000C5FB00280BD109200D21FEF7BFFB0028EF
:102FF00005D10E201021FEF7B9FB002802D0FEF704
:1030000097FC80BDFEF778FC80BD80B5FDF726FB00
:10301000FFF7BAFFFEF70EF9FEF774FCFEF7C0F8F3
:10302000FEF77EFEFEF7FAF8FEF72CFCFFF78AFEAD
:1030300080BD000070B504460E4D114E2046294655
:10304000FDF7A8F9002805D020463146FDF7A4F881
:103050000446F3E7084D094E20462946FDF78CF952
:10306000002805D120463146FDF796F80446F3E7DF
:10307000204670BDDB0F4940DB0F49C0DB0FC94064
:10308000DB0FC9C0F0B4040C8BB2264682B25E439B
:103090000D0C1046370C5843360480190021794135
:1030A00016466E43370C36048019794126466E4326
:1030B0008919F0BC70474100080200D004200A0EB4
:1030C00001D001221043090EFF2901D1022108433A
:1030D000012800D10520704710B50121FDF74DFAF8
:1030E00010BD10B5FDF758F810BD10B50021084609
:1030F000FDF7E8F810BD5E2110B5C9430807FDF7DC
:103100003CFA10BDF0B50E4614465100FF221206DF
:1031100087B0914203D31116316007B0F0BD012092
:103120002502C0070543E00D7838C206D20E2020E4
:10313000871A6000000E7838401181004D487844AD
:103140000B189C464358002A14D0604640689340B0
:103150000146F84003436046806891408646F84047
:103160000143039160467146C0689140F8400143B5
:103170000F4603E060464168039187681846294678
:10318000FFF780FF0291049029460398FFF77AFF2A
:103190000391069038462946FFF774FF0F460698BC
:1031A000029B3D18049A0399BD4201D2012700E019
:1031B00000278818C019002F02D0884202D903E0E6
:1031C000884201D2012100E0002159180A4620322C
:1031D0009709C20C890652034003376011430190DE
:1031E0000846FDF711F902900198FDF72FFA122118
:1031F000C943FDF7C2F901902846FDF727FA2521BA
:10320000C943FDF7BAF9009001990298FCF7C4FF91
:103210000099FCF7C1FF0121C9024018050B2D03DD
:1032200028460299FDF709F80199FDF706F800997B
:10323000FDF707F81049FDF708F800900F492846F8
:10324000FDF703F80099FCF7A7FF00900C4928460A
:10325000FCF7FBFF0099FCF79FFF002C00DB5CE70D
:1032600001210907C91B31600121C907484007B086
:10327000F0BD0000BA090000DB0FC92F22AAFD290A
:103280000000C92F02E008C8121F08C1002AFAD1A5
:1032900070477047002001E001C1121F002AFBD1D6
:1032A00070470000014908607047000000000020DE
:1032B000F8B504464721400049060D224118120680
:1032C000914253D83F21490688421BD960007F2193
:1032D0004008C905FCF7B5FF0021C943FDF74DF9CA
:1032E000074600F03DFB002C04DA2F4D2D4EA907B8
:1032F000484001E02D4E2E4D03218907FCF7A5FF24
:10330000044606E00026214635460846FCF79DFFA8
:10331000074628493846FCF798FF2749FCF73CFF49
:103320003946FCF792FF2549FCF736FF3946FCF792
:103330008CFF2349FCF730FF3946FCF786FF214913
:10334000FCF72AFF009039462046FCF77EFF0099E3
:10335000FCF77BFF074629462046FCF71DFF394650
:10336000FCF71AFF3146FCF717FFF8BD3921490673
:10337000884208D22046FFF79EFE042801D1FFF7BD
:10338000BAFE2046F8BDFF210906884203D920462F
:10339000FFF7A2FEF8BD0120FFF784FFFFF7A5FEAF
:1033A000F8BD00000000C9BF22AAFDB90000C93F56
:1033B00022AAFD3924FE1C3DC78AD83C1E67383D31
:1033C0001B93993DAFAA2A3EF0B50C4601461D223B
:1033D0004B00D2069F18E52605463606620087B0E8
:1033E0002046B7427BD21D27FF06D719B74276D2B7
:1033F0004F0043003E0E1A0EB21A1B2A07DD0029A9
:1034000002DA854807B0F0BD844807B0F0BD1A263F
:10341000F2422FDA002807DA002902DA804807B0E2
:10342000F0BD804807B0F0BD21462846FCF74AFFB2
:103430000646FFF740FE042801D1FFF75CFE284650
:10344000FFF739FE05462046FFF735FE04463046B5
:10345000FFF731FE042D01D0052D08D1042C01D039
:10346000052C04D1002802D10220FFF71BFF3046B3
:1034700007B0F0BD9F4211D9002902DA6A4F6B4EA6
:1034800001E06B4F6B4E23462C461D46012203463E
:10349000D20708465440504019460BE0002807DA8E
:1034A000002902DA644F654E04E0654F654E01E085
:1034B00000263746421A012352001B069A422FD299
:1034C000484061490CD5BF20000602903846FCF701
:1034D000B4FE07465D493046FCF7AFFE0BE053E013
:1034E0003F20000602903846FCF756FE0746574933
:1034F0003046FCF751FE064628460299FCF7A5FE29
:103500002146FCF749FE009021460298FCF79DFEFB
:103510002946FCF796FE0099FCF7D4FE044604E029
:1035200021462846FCF7CEFE04460146FCF78DFEF8
:1035300047490090FCF789FE4649FCF72DFE0099AB
:10354000FCF783FE4449FCF727FE0099FCF77DFE5B
:103550004249FCF721FE0099FCF777FE4049FCF751
:103560001BFE054620460099FCF76FFE2946FCF736
:103570006CFE3146FCF710FE2146FCF70DFE394685
:10358000FCF70AFE07B0F0BDFF263606B34201D8AD
:10359000B24205D901462846FFF7A3FD07B0F0BDAA
:1035A0002F4607437F000AD0B3420CD1B2420AD162
:1035B00001229207904391430D46044618E7FF22EB
:1035C000D2051043F9E7B3420CD047000AD0B2420B
:1035D0000ED04E000CD05340F0D4002A0EDB9F26B4
:1035E000F6050DE0FF22D2051143E00FC007FFE60C
:1035F000C90FC907FF22D2051043F9E65F26F60579
:1036000031462846FCF721FE054631462046FCF7A8
:103610001CFE04462946EBE6DB0FC9BFDB0FC93FA2
:10362000DB0F49C0DB0F49400000C9BF22AAFDB92A
:103630000000C93F22AAFD39000049C022AA7DBA74
:103640000000494022AA7D3A0060ED3EC30ACE3711
:103650002DAD65BD8FB8D53D0FB511BE61C84C3ECF
:10366000A8AAAABEF0B5024604464E4B83B040005D
:103670006946984209D273210906884202D2002085
:10368000C04300E00020009030E05000464B40086E
:1036900098426CD245491046FCF7D7FDFCF7A5FFD0
:1036A0000746FCF7BCFE8007800F00904049384673
:1036B000FCF7CBFD01903F493846FCF7C6FD0646B6
:1036C0003D493846FCF7C1FD05463C493846FCF704
:1036D000BCFD2146FCF7B5FD2946FCF7AEFD3146A1
:1036E000FCF7ABFD0199FCF7A8FD044625467F27B2
:1036F000009CFF05002C3EDBE007314E29460846C2
:103700001BD0FCF7A2FD07462E49FCF79EFD2E4973
:10371000FCF742FD3946FCF798FD2C49FCF73CFDCF
:103720003946FCF792FD2946FCF78FFD2946FCF748
:1037300033FDA10718D503B0F0BDFCF786FD0546A3
:103740002349FCF782FD2349FCF726FD2946FCF7B7
:103750007CFD2149FCF720FD2946FCF776FD394622
:10376000FCF71AFDA107E6D5704003B0F0BD104686
:10377000FFF7C8FCB9E7FF2168000906884202D2BA
:10378000384603B0F0BD884206D10120FFF78AFD1C
:10379000FFF7ABFC03B0F0BD2846FFF79DFC03B07C
:1037A000F0BD0000B61F927E490E494683F9223FC4
:1037B0001A61342C0020A23300A0FD390000C93F5B
:1037C00000000080336D4CB9DA82083CA0AA2ABE02
:1037D000B93AB2BACA9F2A3DDDFFFFBEF0B5024634
:1037E0000446514B83B040006946984209D2732188
:1037F0000906884202D20020C04300E00020009069
:1038000030E05000494B400898426BD2484910467E
:10381000FCF71BFDFCF7E9FE0746FCF700FE8007FE
:10382000800F009043493846FCF70FFD0190424954
:103830003846FCF70AFD064640493846FCF705FDC8
:1038400005463F493846FCF700FD2146FCF7F9FCE8
:103850002946FCF7F2FC3146FCF7EFFC0199FCF736
:10386000ECFC04462546009C002C3FDBE007354E6F
:10387000294608461AD0FCF7E8FC05463249FCF711
:10388000E4FC3249FCF788FC2946FCF7DEFC3049B1
:10389000FCF782FC2946FCF7D8FC7F21C905FCF720
:1038A0007BFCA10700D5704003B0F0BDFCF7CDFC58
:1038B00007462849FCF7C9FC2749FCF76DFC394647
:1038C000FCF7C3FC2549FCF767FC3946FCF7BDFC57
:1038D0002946FCF7BAFC2946FCF75EFCA107E2D4B6
:1038E00003B0F0BD1046FFF70DFCBAE7FF216800FA
:1038F0000906884209D22846FFF7DDFB042801D1DA
:10390000FFF7F9FB284603B0F0BD884206D101203D
:10391000FFF7C8FCFFF7E9FB03B0F0BD2846FFF74F
:10392000DBFB03B0F0BD0000B61F927E490E494696
:1039300083F9223F1A61342C0020A23300A0FD3904
:103940000000C93F00000080B93AB2BACA9F2A3DC0
:10395000DDFFFFBE336D4CB9DA82083CA0AA2ABE57
:1039600070B50546FCF715FE41000446FF204908E6
:10397000C005411AC90F07D069004908401AC00F95
:1039800002D10120FFF78EFC204670BDF0B5024643
:1039900004464C4B83B040006946984209D27321DB
:1039A0000906884202D20020C04300E000200090B7
:1039B00030E05000444B4008984262D243491046E0
:1039C000FCF743FCFCF711FE0746FCF728FD8007D7
:1039D000800F00903E493846FCF737FC01903D4986
:1039E0003846FCF732FC06463B493846FCF72DFCCE
:1039F00005463A493846FCF728FC2146FCF721FCED
:103A00002946FCF71AFC3146FCF717FC0199FCF734
:103A100014FC0446009D002D37DB21460846FCF7C8
:103A200014FC06462E49FCF710FC2E49FCF7B4FBAB
:103A30003146FCF70AFC2C49FCF7AEFB3146FCF79B
:103A400004FC2A49FCF7A8FB3146FCF7FEFB284999
:103A5000FCF7A2FB3146FCF7F8FB2649FCF79CFB80
:103A60003146FCF7F2FB2146FCF7EFFB2146FCF761
:103A700093FBE90703D001461F48FCF723FC03B082
:103A8000F0BD1046FFF73EFBC3E7FF2160000906CB
:103A9000884209D22046FFF70EFB042801D1FFF728
:103AA0002AFB204603B0F0BD884206D10120FFF773
:103AB000F9FBFFF71AFB03B0F0BD2046FFF70CFB44
:103AC00003B0F0BDB61F927E490E494683F9223FEE
:103AD0001A61342C0020A23300A0FD390000C93F38
:103AE000BCE9223C0B6D063B8A76CE3CACB5593D19
:103AF00035A1083E29AAAA3E000080BF00000000B0
:103B00006E83F9A22915444ED15727FCC0DD34F548
:103B1000999562DB4190433CAB6351FE000000008D
:103B20000000000000000000000000000000000095
:103B30000000000000000000000000000100000084
:103B40000200000003000000040000000600000066
:103B5000070000000800000009000000000000004D
:103B60000000000000000000000000000100000054
:103B700002000000030000000400000000093D00F6
:103B800000127A00000000000000000000366E0104
:103B9000006CDC020000000000000000FFFFFFFFDF
:103BA000040A050020004000800010000102030408
:103BB00005060708090A0B120D0F10110700030074
:103BC0000F000800050002000100090006000D00BA
:103BD0000E000C000A0010000B000400010002009F
:103BE000020820045465726D696E616C000000006B
:103BF000103C00080000002078000000843200081B
:103C0000883C000878000020080B0000943200086F
:103C1000000000000AD7233C0000803F00000000A5
:103C200000000000000000000000803F9A99993ECB
:103C30008FC2F53C0AD7A33B0000803F0000000084
:103C400000000000000000000000803F00000000B5
:103C500000000000000000000000803F00366E0100
:103C600071CFC7BF9E2F243FDF85A43CDF85243D55
:103C7000DF85A43C1B6F3FBFC25F8B3EC640063E44
:083C8000C640863EC640063E28
:04000005080000C12E
:00000001FF
