:020000040800F2
:10000000D8040020D5000008ED080008EB0800081F
:1000100000000000000000000000000000000000E0
:10002000000000000000000000000000F1080008CF
:100030000000000000000000EF080008F3080008BE
:10004000000000000000000000000000E7000008C1
:10005000E7000008E7000008E7000008E7000008E4
:100060000000000000000000000000000000000090
:10007000E7000008E7000008E700000800000000B3
:1000800000000000E700000800000000E700000892
:10009000000000000000000000000000E700000871
:1000A00000000000E700000800000000250A00082A
:1000B0000000000000000000000000000000000040
:1000C0000348854600F034F800480047310A00082C
:1000D000D80400200448804704480047FEE7FEE7B4
:1000E000FEE7FEE7FEE7FEE7FD080008C1000008A6
:1000F00070B50446002903D000202022012310E01F
:10010000002801D00020C043C046C0460DE025466F
:10011000D5408D4205D30D469540641B1D46954044
:1001200040191546521E002DF1DC214670BD00001D
:10013000064C0125064E05E0E36807CC2B430C3C3A
:1001400098471034B442F7D3FFF7BEFF200B0008E6
:10015000400B0008F0B587B00D490A68012422431E
:100160000A6009682140019102250595002104914A
:10017000039402958600114FB859019902A900F025
:100180001FF8B8592946224600F0D6F807B0F0BD4E
:100190003410024080B5800008490858022101222D
:1001A00000F0CAF880BDC04680B5800003490858F9
:1001B0000221002200F0C0F880BDC04600000020EF
:1001C000F0B589B00B68002B00D1AAE00E46564965
:1001D000884201D0022200E0012205210907002700
:1001E0008842009700D000923A4608973C46039612
:1001F00011E029434D4A5160059A641C3368194641
:10020000E1403F1D08322546089CA41C08942C465A
:10021000002900D185E001252946A1400B40ECD002
:100220000291079405920697049372680746344634
:1002300010261643122E0ED11C20069A10400F26AF
:100240008640079AD3089B00FB181A6AB2432669B6
:10025000864016431E62384603273A4608998A406C
:10026000036893436468264601973E408E401E43D0
:100270000660D643122C14D8A5402E4A154210D041
:1002800082683240039BDB68089DAB401343836068
:10029000E206D20F079B9A40436802998B431343AF
:1002A0004360C1683140039EB268089B9A400A438C
:1002B000C260E100049D069F059A079C9DD52346D8
:1002C000182414400F21A1401A46019B9A43174B52
:1002D0009A18136E8B430099A14019431166144973
:1002E00009687368DA0301D5294300E0A943079C34
:1002F0000F4A116051689A0301D5294300E0A943D0
:100300000B4A516009490968DA0201D5294300E026
:10031000A943064A116051689A0200D569E7A943CA
:1003200068E709B0F0BDC046000400500018024064
:100330008018024006000600002A02D018228150D0
:1003400070472822815070471A48006802490A689D
:10035000101808607047C046D400002080B5032004
:1003600000F008F8002801D0012080BD00F026F838
:10037000002080BDB0B505460E4801680124002963
:1003800016D07D20C000FFF7B3FE0146304800685C
:10039000FFF7AEFE00F062F8032D09D8002807D160
:1003A0000024E0432946224600F028F80248056070
:1003B0002046B0BD840000208800002082B009489B
:1003C0004168012211434160416811400191019946
:1003D000110702680A430260006808400090009814
:1003E00002B070473C1002401F21014001208840AC
:1003F000014908607047C04600E100E0002805D4CC
:10040000032203469343094A9A1803E00C22024050
:10041000074BD2188007C00E8901C9B28140FF2363
:1004200083401068984308431060704700E400E080
:1004300014ED00E00648006806490968890A1C2294
:100440000A40054989581F220A40D0407047C046DB
:100450000400002008100240000B0008401E010E9E
:1004600001D0012070470749074A506007480368D8
:100470000B40032189075918016000209060072173
:1004800011607047FFFFFF0010E000E020ED00E08A
:1004900080B50020FFF77EFE80BD3D21415C3D30F0
:1004A00040780843C0B27047F0B587B00446006892
:1004B0000768C56820212A4604910A4051425141EB
:1004C0002F263E40203E731E9E410E4321463D3165
:1004D0004369002E44D0039101210591390702910F
:1004E00009D001210B4001910E02314620312940F3
:1004F000591800D080E010222A4051425141FA069A
:10050000059A00D50A46002A09D100210691016802
:100510000691406806900698204600F011F9802068
:100520002A460240514251413A06059A00D50A46F0
:10053000002A40D040200540694269417A0600D532
:1005400005910599002900D0A9E02168CA68824375
:10055000CA60049803990870204600F0C5F99EE02F
:100560000E464978222900D099E001210A03A368A8
:10057000934203D12269002A00D192E0626B531C9E
:10058000636340681070608F401E6087000400D075
:1005900085E02068C268049DAA43C2600A02C3685D
:1005A0009343C36042698A4342617570204600F0FC
:1005B00079F907B0F0BD0399097821296FD101219C
:1005C0000903A2688A4202D12169002971D02168F9
:1005D000E26A13784B60511CE162618E491E6186AC
:1005E00009045CD12168CA688243CA60C868402295
:1005F0000243CA6007B0F0BD0096354069426941C8
:10060000FD07059D00D00D46002D03D1216C019DF5
:1006100029432164594259417D07059D00D50D4666
:10062000002D03D1216C02250D4325645942594107
:10063000BD07059D00D50D46002D03D1216C042575
:100640000D43256459425941029B002B059B00D55F
:100650000B46002B03D1216C08230B432364216C30
:1006600000291CD004990F4051425141002F00D065
:10067000059105990029009B41D1039949782229C8
:100680003DD101990903A2688A4202D1216900295A
:1006900018D0616B4A1C62634068087019E007B0AB
:1006A000F0BD4068244A0240606B0280801C606399
:1006B00069E7E16A8A1CE26209881F4A0A402168E8
:1006C0004A608AE740681C490140606B0180801CD9
:1006D0006063608F401E6087000410D12068C1688D
:1006E000049A9143C160C1689943C1604169019B0B
:1006F0009943416103984270204600F0D3F8206C82
:10070000000706D42046FFF7C3FE0020206407B090
:10071000F0BD0A4820382168CA680240CA604869AA
:10072000019A904348610498039948702046FFF766
:10073000AFFE07B0F0BDC046FF010000FFFEFFFFA7
:100740007047F0B581B000283DD0044605463C35E1
:100750006878002804D100202870204600F036F880
:100760002420687001277E032068C168B143C160FE
:10077000204600F0EFF82021605C400611D53A03D6
:100780002068436993430096666A33434361964207
:10079000009E06D10322520343699343A26A1A437F
:1007A0004261F80222681369834313615069082388
:1007B00098435061D0683043D06000202064697055
:1007C000A97001B0F0BD012001B0F0BDF0B587B057
:1007D00000240694059404940394029417490A682B
:1007E000022002430A600A6802400192019A012530
:1007F000AA03CB681343CB60C968114001910590EF
:100800000495039010200290019806950C4E02AFBB
:1008100030463946FFF7D4FC06952020029030463A
:100820003946FFF7CDFC1B26304621462A46FFF706
:10083000E5FD3046FFF7D8FD07B0F0BD34100240AB
:1008400000040050F0B582B0034604463C34A07862
:100850000225202823D1012000291ED0002A1CD0E7
:1008600020780128284618D05A87002018642225AD
:10087000A570012500952D0201951F68FE68019D58
:100880002E43FE607E69009D2E437E611A87596368
:100890002070F96820220A43FA6002B0F0BD2846B1
:1008A00002B0F0BD7047B0B504463C346378022511
:1008B000202B17D10123002912D0002A10D0237831
:1008C000012B2B460CD04286002303642125657042
:1008D0000286C16223700068C16880220A43C26038
:1008E0001846B0BD2846B0BD7047FEE77047704758
:1008F000704780B5FFF728FD80BD000081B00F482C
:1009000001680F4A0A400F490B889A180260026872
:100910000D4B1340496CC905C909C9180160012074
:10092000C0060A4908600A48009000BF0098411EAE
:1009300000910028F9D101B07047C0460410024070
:100940000000FFFF0001FF1FFFFF00FE08ED00E0B9
:10095000E0930400F0B581B0044601214A03006829
:1009600003699343E2681A430261A268236913434F
:1009700062691A43C368284D1D401543C560CD0206
:100980004169A943E6693143416103210902426992
:100990008A43A16911434161FFF74CFD01461920CB
:1009A00048436168AE421AD14900FFF7A1FB0646F1
:1009B00064273946FFF79CFB0546194868438019B0
:1009C000C00032303946FFF793FB07210140400059
:1009D0001F221201024028011018401817E0890058
:1009E000FFF786FB064664273946FFF781FB05467D
:1009F0000A4868438019000132303946FFF778FB16
:100A00000F210140F02202402801101840182168EF
:100A1000886001B0F0BDC046F3E9FFFF9CFFFF0F07
:100A20009CFFFF1F80B52948FFF73EFD80BDC046F3
:100A3000FFF794FC00252846FFF78CFB234CE120B0
:100A40004002234925620C2221606060A560E560B8
:100A500025616261A561E5612046FFF772FE1D49CF
:100A600058222046FFF71FFF002800D0FEE7174856
:100A700019490C22FFF7E6FE002800D0FEE7134CD0
:100A80002046FFF70AFD2028FAD1104812490C220F
:100A9000FFF709FF002800D0FEE70C4C2046FFF7C7
:100AA000FCFC2028FAD109480C491522FFF7FBFE6F
:100AB000002800D0FEE7054C2046FFF7EEFC20287A
:100AC000FAD10020FFF770FBFEE7C046900000203F
:100AD000003801402A0000200800002014000020F7
:100AE00002E008C8121F08C1002AFAD170477047F7
:100AF000002001E001C1121F002AFBD17047000055
:100B000000000000000000000000000000000000E5
:100B100001000000020000000300000004000000CB
:100B2000400B00080000002090000000E00A0008D0
:100B3000D00B00089000002048040000F00A0008D4
:100B40000000005000366E01FFFFFFFFFFFFFFFFB8
:100B5000FFFFFFFF0A0D204578616D706C65204630
:100B6000696E69736865640A0D000A0D205541526B
:100B7000542048797065727465726D696E616C207D
:100B8000636F6D6D756E69636174696F6E2062610C
:100B9000736564206F6E2049540A0D20456E74659C
:100BA00072203132206368617261637465727320F0
:100BB0007573696E67206B6579626F617264203A44
:100BC0000A0D000001000000040000000000000009
:04000005080000C12E
:00000001FF
