:020000040800F2
:1000000098050020D50000080F0C00080D0C000812
:1000100000000000000000000000000000000000E0
:10002000000000000000000000000000130C0008A9
:100030000000000000000000110C0008150C000872
:10004000000000000000000000000000E7000008C1
:10005000E7000008E7000008E7000008E7000008E4
:100060000000000000000000000000000000000090
:10007000E7000008E7000008E700000800000000B3
:1000800000000000E700000800000000E700000892
:10009000000000000000000000000000E700000871
:1000A00000000000E700000800000000E700000872
:1000B0000000000000000000000000000000000040
:1000C0000348854600F042FA00480047190D000831
:1000D000980500200448804704480047FEE7FEE7F3
:1000E000FEE7FEE7FEE7FEE71D0C0008C100000882
:1000F000D2B201E00270401C491EFBD270470022C0
:10010000F6E710B513460A4604461946FFF7F0FF16
:10011000204610BDF8B502464A40D40F42004B00BD
:1001200052085B089A4202D20246084611464A002B
:1001300023D0C30D4A00DDB2120EAD1A202D35DAE0
:1001400049020126490AF6058A19002C00D05242BC
:1001500020214F1B1146B9402A411018C20D9A4266
:1001600021D0002C17D0012D08DCDA05801AD20F1F
:100170008019D207DBB200F040F9F8BDDA05801A29
:10018000012340001B06C01880185A428018CA0F6D
:100190001043490007E04908C2071143DA05801AF5
:1001A00080194008801800F020F9F8BD6100012294
:1001B000511A001BF7E70122D2075140AAE701229A
:1001C000D2075040A6E7024670B54A40D30FDB077E
:1001D00040002DD04A002AD0010E140E0002120257
:1001E0000919400A520A8418E50104465443000ADA
:1001F000120A2E045043A4194219200CC543AA1810
:10020000120C0125AD03521C521912047F3924042B
:1002100000D0521C104301D44000491EC2B20C064B
:10022000C0092018401C4008802A02D003E00020AA
:1002300070BD40084000002900DA0020184370BD5E
:1002400070B502464A40D50F40004A00ED0740080D
:100250005208002814D0002A12D0C40DD30D410238
:100260000120C0055202490A520AE41A091812185C
:100270007D34914201D3641C00E04900002C01DA76
:10028000002070BD0023914201D3891A0343400826
:1002900049000028F7D100290AD0914202D101215A
:1002A000C90705E0914201D2012101E00121C943C2
:1002B000E005C018401900F098F870BD0122D2077F
:1002C000002800DB101A002900DB511A814201D8F6
:1002D00001207047002070470122D207002800DB70
:1002E000101A002900DB511A814201D20120704707
:1002F000002070470122D207002800DB101A0029D5
:1003000000DB511A814201D3012070470020704761
:100310000122D207002800DB101A002900DB511A45
:10032000814201D9012070470020704710B5002993
:1003300004DB0C460121C9074042A141002B04DB2C
:100340001C460123DB075242A341801A994101D385
:10035000012010BD002010BD10B5002904DB0C46A3
:100360000121C9074042A141002B04DB1C460123A7
:10037000DB075242A341801A994101D2012010BDEE
:10038000002010BDC20FD207400040080BD0C10DA5
:100390000723DB01C91840020905400A1143C208BE
:1003A00040071143704700200146704770B504466E
:1003B000002903D000202022012310E0002801D0D2
:1003C0000020C043C046C0460DE02546D5408D42C2
:1003D00005D30D469540641B1D46954040191546B2
:1003E000521E002DF1DC214670BD002904DA401CAC
:1003F000490001D140084000704770B40024050C4A
:1004000005D11024000402D1002921D01124050EA9
:1004100001D100020834050F01D10001241D850F10
:1004200001D18000A41C002801DB4000641C0029CD
:1004300008D020252E1B0D46F540A14000D00121FB
:100440002943084301061B1B000ADB1D02D50020BF
:1004500070BC7047DB05181880180029F8DA401CBA
:100460004900F5D170BC400840007047420005D0FB
:100470004200120E52428A4201DB00207047C90539
:100480000818704770B5002801DC002070BD4100DD
:1004900040020126400AF605090E8019CA0701D15B
:1004A0004000491E4D10002211463F353346CB40D7
:1004B0009B18D418844201D8001B1A464000491CDE
:1004C0001729F3DD5100814202D20021C94300E027
:1004D0000021E8058018FFF788FF70BD10B54100C6
:1004E0000DD04100090E962909DC7E290ADC07DBC4
:1004F000410205D0C00F7F21C007C905401810BDBB
:10050000002010BD9622541A20210A1B014691405A
:10051000E040FFF76AFFA04010BDC20F410040025B
:100520000123400ADB05D207090EC0187F2901DA32
:1005300000207047962903DC9623591AC84001E031
:1005400096398840002AF4D040427047064C012575
:10055000064E05E0E36807CC2B430C3C984710346B
:10056000B442F7D3FFF7B0FD9C280008BC28000870
:10057000C217C10F504010B54018CA07962300217A
:10058000FFF73BFF10BD10B5002296231146FFF781
:1005900034FF10BDFEB514460F4601900E684D683D
:1005A00002954E6011683046FFF70DFE0146019836
:1005B000FFF701FE019061682846FFF704FE01463F
:1005C0000198FFF7F8FD05463860E1683046FFF70F
:1005D000FAFD0646A1682846FFF7F5FD3146FFF70C
:1005E00099FD054621690298FFF7EDFD2946FFF7C1
:1005F00091FDFEBD054800687047C0461A48006876
:1006000002490A68101808607047C046940100202B
:1006100080B5032000F008F8002801D0012080BD3B
:1006200000F024F8002080BDB0B505460E480168F2
:100630000124002916D07D20C000FFF7B7FE014637
:100640008C480068FFF7B2FE00F0C6FA032D09D807
:10065000002807D10024E0432946224600F01CF878
:10066000854805602046B0BD6800002082B009487A
:100670004168012211434160416811400191019993
:10068000110702680A430260006808400090009861
:1006900002B070473C100240002805D403220346F4
:1006A0009343094A9A1803E00C220240074BD218E0
:1006B0008007C00E8901C9B28140FF2383401068C2
:1006C000984308431060704700E400E014ED00E038
:1006D000F0B583B000284BD00D4602906148006809
:1006E000012101910840A84214D25E490868012600
:1006F000B043284308605C4CFFF77CFF074659482D
:1007000000683040A84205D0FFF774FFC01BA0422C
:10071000F5D9A3E0029B18688107544C0DD5410719
:1007200004D50721090322680A4322600F21090228
:1007300022688A43996811432160C0071BD127466C
:100740004848006801263040A84223D94549086836
:10075000B0430860444CFFF74DFF05464148006830
:10076000C00717D0FFF746FF401BA042F6D975E03F
:10077000012003B0F0BD5B68002B4BD0042B50D0A0
:10078000012B50D1214608390968490301984ED4FC
:1007900003B0F0BD029A107840073B4606D507200B
:1007A000000319688143D068084318601868800600
:1007B000400F06D018683821084008280FD12C486F
:1007C00017E0184608380168181F0068C00A1C2284
:1007D0000240FC4880588904490FC84009E01A6863
:1007E0000A40F003202A04D01A680A40182A00D0D0
:1007F0000020196889093C220A40F34989581F22C0
:100800000A40D040F1490860F1480068FFF70CFF4A
:1008100003B0F0BD21460839096849050198B7D5EC
:1008200005E0616D00E0A16D89070198B0D52168F0
:100830000722914319432160E64FFFF7DBFE06468E
:1008400020683821014002984068C000814200D1F0
:1008500075E7FFF7CFFE801BB842F1D9032003B044
:10086000F0BDC0460020024088130000081002407E
:1008700000366E01380000206C000020F0B583B017
:100880000125002800D194E10468E107CA4F12D085
:10089000B96838220A404168082A02D100290AD1E1
:1008A00087E101229204891A4B424B4199043B682B
:1008B00093435918396001950290A00709D4029812
:1008C0000078000729D402980078400748D4002512
:1008D0006FE1B8688006400F50D03868029E3169D9
:1008E000002900D188E00721C902884371690143CA
:1008F0003960012001023A680A433A608402FFF736
:1009000079FE05463868204200D09FE0FFF772FE6E
:10091000401B0228F6D903254BE1B8683826304041
:10092000182854D1386E800704D50298C069002871
:1009300000D1EFE07868CB4901400298006A0004DA
:1009400008437860FFF756FE0546386E800700D5ED
:1009500099E0FFF74FFE401B0228F6D9032528E156
:10096000B86838210140202959D1F86D8007AED5EB
:10097000029880680028019DA9D11AE101253868F4
:100980004005029A03D51069002800D111E1AC029C
:100990008A4908680125284308600720C002396891
:1009A00081435069084338607868AD4901409069D7
:1009B00008437860FFF71EFE0646386820424CD197
:1009C000FFF718FE801B0228F7D90325F1E0386EE7
:1009D0000299C969002960D0012108433866FFF7F0
:1009E00009FE0646386E800768D4FFF703FE801BB9
:1009F00003250228F6D9DCE001210A029043386081
:100A00008C02FFF7F7FD05463868204200D156E713
:100A1000FFF7F0FD401B0228F6D90325C9E0029A32
:100A20009568002D06D00320000439698143D06801
:100A300008433861052D4AD0012D4CD0F86D0121B5
:100A40008843F865F86D0421884347E07868844955
:100A50000140B0690843786031E7B8688006400F0C
:100A6000574859D0B96838221140082901465DD04D
:100A7000BB681340E903202B58D0BB681340182BE8
:100A800054D0002152E0B8688006400F68D0B868A2
:100A9000304008286FD14A4878E001218843386601
:100AA000FFF7A8FD0646386E800700D40BE7FFF776
:100AB000A1FD801B03250228F5D97AE078686949F1
:100AC00001400298006A000408437860FBE6F86D74
:100AD00004210143F965F96D01200843F865FFF72A
:100AE00089FD04463B4E002D10D0F86D800700D5DF
:100AF000EDE6FFF77FFD001B0325B042F5D958E076
:100B0000FFF778FD001B0325B04252D8F86D80072F
:100B1000F6D4DCE6019D4CE03A687968C90A1C23EA
:100B20000B402849C9589204520FD140BA68920923
:100B30003C231340244AD2581F231340D940234A50
:100B40001160401C884204D91C4A10680121884366
:100B500010601F480068FFF767FD002829D1AEE646
:100B600039687868C00A1C220240164880588904F7
:100B7000490FC8400AE0B96831400120C00320296C
:100B800004D0B9683140182900D00020B96889091B
:100B90003C220A400C4989581F220A40D0400B4988
:100BA00008600B480068FFF73FFD002800D18AE687
:100BB000019D284603B0F0BD001002400020024015
:100BC00000366E017C2800083C2800083800002010
:100BD0006C00002088130000401E010E01D001208F
:100BE00070470749074A5060074803680B400321D4
:100BF0008907591801600020906007211160704733
:100C0000FFFFFF0010E000E020ED00E0FEE770478E
:100C10007047704780B5FFF7F1FC80BD81B00F4889
:100C200001680F4A0A4059490B889A180260026805
:100C30000C4B1340496CC905C909C9180160012052
:100C4000C006094908600948009000BF0098411E8D
:100C500000910028F9D101B07047C046041002404D
:100C60000000FFFFFFFF00FE08ED00E0E09304003E
:100C7000F0B583B01E4F38681E4E474D31462A46A8
:100C8000FFF788FC1C4908600C467868314608313B
:100C90002A46FFF77FFC6060B868103631462A4666
:100CA000FFF778FCA060154C2068154F394E394687
:100CB0003246FFF76FFC134D2860606839460831F3
:100CC0003246FFF767FC6860A06810373946324645
:100CD000FFF760FCA8600C4801900C4800900C4A9B
:100CE0000C4B0548294600F0B1FA03B0F0BDC046F0
:100CF00008010020E4000020FC000020200100206A
:100D00002C0100206C0100207801002084010020CB
:100D100050000020140100208EB0FFF779FC05ADD3
:100D200024212846FFF7EBF900240A94012630021B
:100D300009900F2005900C94069407940494039452
:100D400002940194114800880B902846FFF796FD05
:100D5000002800D0FEE70494039402940720019039
:100D600001A82146FFF7B4FC002800D0FEE77F2051
:100D7000C105074C074A204600F0A0FFB107064A0C
:100D8000204600F09BFFFFF773FFFCE70001FF1F09
:100D90000000C842540000203C000020F0B587B09D
:100DA0000446456828462946FFF70DFA064620689E
:100DB00006900146FFF707FA3146FFF7ABF9074601
:100DC000A66830463146FFF7FEF93946FFF7A2F92B
:100DD00001F056FC0746CB49FFF770FA00240028C3
:100DE00000D052E1C8493846FFF784FA002800D005
:100DF0004BE130463946FFF723FAC44C0490206398
:100E000028463946FFF71CFA0646E062069839463E
:100E10002746FFF715FA0446B8623F200106204630
:100E20000591FFF775FA002806D1BF20010620467C
:100E3000FFF760FA002806D10120C0074440FE6198
:100E40003C62002508E00020F861049C3C6201211E
:100E5000C90735464D4006467D6220462146FFF7CC
:100E6000B2F9044630463146FFF7ADF92146FFF7A7
:100E700051F9044628462946FFF7A5F92146FFF710
:100E800049F901F0FDFB0546F8692946FFF7D8F955
:100E90000690F861386A2946FFF7D2F904463862AD
:100EA000786A2946FFF7CCF904907862F96A0291D2
:100EB000FFF789F90646396B03912046FFF783F95E
:100EC0003146FFF778F901903861BE6A2046314615
:100ED000FFF779F90090069D28460299FFF773F90C
:100EE0000099FFF768F9B86104983146019EFFF751
:100EF0006AF904902846039D2946FFF764F90146E4
:100F00000498FFF758F97861069420462946FFF7C0
:100F100001F9014634463046FFF7DEF9002847D094
:100F200028462146FFF7F6F801460698FFF7D4F960
:100F300000286CD006982146FFF7ECF801462846B9
:100F4000FFF7CAF9002800D1A4E07F20C1052046A0
:100F5000FFF7E0F801460698FFF7DCF8014628465F
:100F6000FFF7D8F801F08CFB0599FFF72CF9044640
:100F70003860F86A796AFFF71EF905468120C105D5
:100F80002046FFF720F9044628462146FFF758F986
:100F9000AC4EF060B869B96AFFF70DF92146FFF76A
:100FA0004FF93061F8697D692946FFF704F95FE080
:100FB0007F20C1052046FFF7ADF80699FFF7FBF843
:100FC0002946FFF7F8F801F05BFB0599FFF7FBF8FE
:100FD00004469C4EF060F86A796AFFF7ECF8054623
:100FE0008120C1052046FFF7EEF804462846214639
:100FF000FFF726F938607D69F9692846FFF78AF816
:101000002146FFF71DF93061B869B96A2EE07F20EB
:10101000C0052146FFF7CFF801460698FFF77AF89A
:101020002946FFF7C8F801F02BFB0599FFF7CBF82D
:101030000446844E3061B869B96AFFF7BCF80546CA
:101040008120C1052046FFF7BEF804462846214608
:10105000FFF7F6F838607D69F9692846FFF75AF816
:101060002146FFF7EDF8F060786AF96AFFF752F869
:101070002146FFF7E5F870610124E007396A414035
:10108000284601F031F86F4948626E4844702046A6
:1010900007B0F0BD7F20C0052146FFF78CF8069908
:1010A000FFF789F801462846FFF734F801F0E8FA1F
:1010B0000599FFF788F8044662484461F8697D693C
:1010C0002946FFF778F806468120C1052046FFF73C
:1010D0007AF8044630462146FFF7B2F83860B8691E
:1010E000B96AFFF717F82146FFF7AAF8554EF060E6
:1010F000786AF96AFFF70EF82146FFF7A1F8306128
:10110000BAE7C0460AE89C400F5C6B41040000202F
:10111000F0B587B04B4C2069059065692946069566
:10112000FFF751F807460290E668474909680091C1
:1011300030460196FFF747F8044638462146FEF749
:10114000E9FF0146FEF7E6FF3F49C86228463146FF
:10115000FFF739F805460490059E3046009F394652
:10116000FFF731F8014603902846FFF724F80146BF
:10117000FEF7D0FF344988620D4602982146FFF7FA
:101180001AF80146FEF7C6FF68623046019E3146F6
:10119000FFF719F8044606983946FFF714F8074692
:1011A00020463946FEF7B6FF0146FEF7B3FFE86179
:1011B00004980399FEF7AEFF0146FEF7ABFFA86166
:1011C00020463946FEF7F7FF0146FEF7A3FF2F46FC
:1011D000686105980146FEF7F6FF04463046314641
:1011E000FEF7F1FF064620463146FEF793FF014623
:1011F000FEF790FF01467F20C5052846FEF7DBFF7E
:10120000386306980146FEF7DEFF07463146FEF7D3
:1012100081FF0146FEF77EFF01462846FEF7CBFF21
:101220000949086220463946FEF774FF0146FEF779
:1012300071FF01462846FEF7BEFF0349086107B06B
:10124000F0BDC0467000002004000020F0B59BB047
:101250001093129107461068139000261A9619965B
:10126000189617961696159678680146FEF7ABFF06
:10127000044638680146FEF7A6FF2146FEF74AFFFE
:101280000446B8680146FEF79EFF2146FEF742FF7E
:1012900001F0F6F905463C68786814901197BF682C
:1012A0002046394600F020FF20462946FEF7C8FFB9
:1012B000044614982946FEF7C3FF14903846294681
:1012C000FEF7BEFF054614980146FEF77CFF074671
:1012D00020462146FEF777FF3946FEF71BFF0446FE
:1012E00028462946FEF76FFF2146FEF713FF01F05F
:1012F000C7F901461498FEF7A3FF00F069FE3F20EE
:1013000001061398FEF75FFF5F4FF97801291CD1A2
:10131000149021980E90209807903424129D119ECD
:10132000402C28D018A800193438311934390968EC
:1013300001603959281934380068FEF73CFF15A9B7
:10134000091934390860241DEAE73878002801D0EB
:1013500000F074FC012E01D900F070FCBB68002085
:101360000124394622469847761C38780528EDD165
:10137000FC7000F063FC139E3046FFF703F8044650
:101380000D46424A424BFEF7E7FF002802D00020FC
:10139000787075E0304600263146FEF79DFF002844
:1013A00007D13A4A3B4B20462946FEF7BFFF0028AB
:1013B00003D13948139039481490787800285FD0C9
:1013C0000F96199E30463146FEF7FDFE04461898EA
:1013D0000D900146FEF7F7FE2146FEF79BFE044600
:1013E0001A9D28462946FEF7EEFE2146FEF792FE9C
:1013F00001F046F904462A49FEF760FF002853D160
:1014000030462146FEF71CFF064606902846214638
:10141000FEF716FF01460590224DE86A0B90FEF795
:10142000D2FE07462D6B30462946FEF7CCFE3946E4
:10143000154FFEF7C0FE0C900D982146FEF700FFF9
:10144000044628462146FEF7BEFE05461548866A34
:1014500005983146FEF7B7FE2946FEF7ACFE054675
:1014600030460699FEF7AFFE06460D9420460B99CE
:10147000FEF7A9FE3146FEF79EFE09900C9818E093
:1014800018A8FFF78BFCAFE1700000209A9999999A
:101490009999C93F9999B93F0AD7A33C0AD7233CE8
:1014A000DD0C7B3F04000020059506960F980990FF
:1014B00005461E498C680C902146FEF784FE139E5B
:1014C0003146FEF780FEB969FEF724FE0890B86148
:1014D0000B9528462146FEF776FE3146FEF773FE51
:1014E000F969FEF717FE0A90F86109982146FEF7A0
:1014F0006AFE3146FEF767FE396AFEF70BFE386278
:101500000120C0070949CF683C4609904440159D19
:1015100028462146FEF7FCFE064628463946FEF7D9
:10152000DBFE00280F9804D102E0C0460400002032
:101530002846002E00D128461390169D28462146A5
:10154000FEF7E6FE019028463946FEF7C5FE0090FC
:10155000179E30462146FEF7DBFE03900496304688
:101560003946FEF7B9FE0290094844680C982146B6
:10157000FEF729FE1399FEF7CDFD01460898FEF708
:10158000C9FD1390009800280F9E04D102E0C046C8
:10159000040000202E46019800280B9800D12E460A
:1015A0002146FEF710FE3146FEF7B4FD01460A98CB
:1015B000FEF7B0FD0B4E35690C902946FEF703FE91
:1015C0000446F1680B91099848401399FEF7FBFD1A
:1015D0002146FEF7F0FD0746029800280F9904D136
:1015E00002E0C0467000002004990398002800D152
:1015F00004997948406909900E460F91FEF7E3FD82
:1016000001463846FEF7D7FD1499FEF7DCFD01468A
:10161000724F3C6820460894FEF77CFD04903860C9
:1016200030462946FEF7CFFD0A9505462046139918
:10163000FEF7C9FD2946FEF76DFD054609980C9E8B
:101640003146FEF7C0FD01462846FEF7B4FD149F63
:101650003946FEF7B8FD01460B9D2846FEF75AFDB8
:101660000F9C03905C49C86030462946FEF7ABFDED
:10167000054608982146FEF7A6FD2946FEF74AFDD5
:1016800005460A98139E3146FEF79DFD0146284601
:10169000FEF791FD3946FEF796FD0146099F384653
:1016A000FEF738FD014602904B48416120460B99F8
:1016B000FEF789FD054608980C99FEF784FD29463A
:1016C000FEF779FD044638463146FEF77CFD21469B
:1016D000FEF720FD1499FEF776FD01460A98FEF705
:1016E00019FD04463C48046103980146FEF76BFD72
:1016F000054604980146FEF766FD2946FEF70AFDF9
:10170000054620462146FEF75EFD2946FEF702FD0E
:10171000044602980146FEF756FD2146FEF7FAFC04
:1017200000F0AEFF04462D4D28682146FEF788FDE7
:1017300028602948C0682146FEF782FD2649C86016
:10174000254800692146FEF77BFD234908612248B0
:1017500040692146FEF774FD1F494861FFF7D8FC38
:101760001F49059C2046FEF72EFD0646286B1D49A5
:10177000FEF729FD3146FEF7CDFC01462046FEF777
:101780001AFDA96A1491EF6A0E9DA860069E304664
:101790001349FEF718FD044638460F4F1149FEF76E
:1017A00012FD2146FEF7B6FC01463046FEF703FD6A
:1017B00068600D9E30460A49FEF705FD0446149800
:1017C0000849FEF700FD2146FEF7A4FC014630461D
:1017D000FEF7F1FC286007E0700000200400002004
:1017E000CCCC4C3ECDCC4C3FF14CE06A00F0F0FB51
:1017F0000646216BA06A00F077FCEE490F90FEF7D9
:10180000E2FC054601200290C007216A1390414086
:101810006069344600F068FC796AFEF7CCFC00F0A1
:1018200099FA0746109E7560E34D20462946FEF75B
:10183000CAFC30600E9738462946FEF7C4FC0546C0
:1018400000273946FEF748FD0646DC492846FEF7E4
:1018500061FC002E00D1284610998860D8492046A6
:1018600088471490D74E2046B04709900F9D2846D0
:10187000B04704462846D249884710900E9D284616
:10188000B04706462846CE49884705460594139832
:101890004440099804942146FEF795FC06900F9663
:1018A0003146FEF790FC044614982946FEF78BFC5F
:1018B0002146FEF72FFC0446109E30460A95294625
:1018C000FEF781FC054608942146FEF774FC0446A9
:1018D00014983146FEF777FC014620460C91FEF73E
:1018E0006AFC7F21C9050B91FEF714FC04463946BA
:1018F000FEF7F2FC0028384600D120467D21CC05B9
:101900002146FEF760FCE64988470E9008982E466F
:101910002946FEF750FC0C99FEF74DFC0B99FEF79B
:10192000F9FB05463946FEF7D7FC0028384600D1BA
:1019300028462146FEF747FCD94988470D90304696
:101940000899FEF7E7FB05460C982946FEF733FC9D
:101950000B99FEF7DFFB06463946FEF7BDFC002873
:10196000384600D130462146FEF72DFCCC49884749
:101970000890CC480E9901400E910D9901400D91AF
:101980000C982946FEF7C6FB0B99FEF7C3FB0546EC
:101990003946FEF7A1FC0C9028462146FEF713FCC1
:1019A000039014980499FEF70EFC0B900F99FEF724
:1019B0000AFC0446099E30460A9D2946FEF703FCB0
:1019C0002146FEF7F8FB044630461099FEF7FBFB74
:1019D0002146FEF79FFB04460B982946FEF7F3FBD2
:1019E000054630460F99FEF7EEFB2946FEF792FBBF
:1019F0000599FEF7E0FB139E30400D9940180D90BD
:101A00000146FEF7E0FB054634400E9820180E9084
:101A10000146FEF7D8FB2946FEF77CFB0B90089D9C
:101A2000A048054006980A99FEF7CDFB0446149895
:101A30000F9E3146FEF7C7FB2146FEF7BCFB04466E
:101A400010983146FEF7BFFB2146FEF763FB139962
:101A50000840451928462946FEF7B5FB0B99FEF7C5
:101A600059FB06460C980028384600D103988C494B
:101A7000884704460146FEF7A6FB3146FEF74AFBBF
:101A800087498847064620463146FEF7D9FB079C22
:101A9000E06028463146FEF7D3FBA0600D98314642
:101AA000FEF7CEFB60600E983146FEF7C9FB206062
:101AB000119D68680146FEF786FB044628680146CA
:101AC000FEF781FB2146FEF725FB0446A868014688
:101AD000FEF779FB2146FEF71DFB714EB0471490CF
:101AE000129C60680146FEF76EFB054620680146C1
:101AF000FEF769FB2946FEF70DFB0546A068014687
:101B0000FEF761FB2946FEF705FBB0471390232043
:101B1000C54311953E46002D12D060484019416FD3
:101B2000016761484019846A44623846FEF7F2FA58
:101B3000074630462146FEF7EDFA06462D1DEAE738
:101B40005948139C44625548149901670846394620
:101B5000FEF7E0FA554F3946FEF772FB1490204627
:101B60003146FEF7D7FA3946FEF76AFB07460026EC
:101B70004C243546742C27D0484800591499FEF758
:101B80001AFB0146FEF71FFB3146FEF7C3FA064675
:101B9000454800194C3800683946FEF70CFB0146F1
:101BA000FEF711FB2946FEF7B5FA0546241DE1E7CD
:101BB00004000020E12E65C2E12E65420000B4431E
:101BC00085230008FD240008384C30462146FEF7E6
:101BD00037FB00F055FD064628462146FEF730FB50
:101BE00000F04EFD044632493046FEF783FB0028E4
:101BF0001ED130492046FEF77DFB002818D1274F23
:101C0000F86A00281CD0B878012817D0BC88002CAE
:101C100021D01E2C28D84025129E4C2D33D0795926
:101C2000701940380068FEF775FA78512D1DF4E7F9
:101C300000201A498862C862888088701BB0F0BD95
:101C4000B86A1D2802D8401CB862F7E70020B862C5
:101C50000298F862F2E740204C2803D00021395066
:101C6000001DF9E702980FE01F2CE7D1119E1836EE
:101C7000114C002E0AD0BD19E86C2146FEF7E0FA9F
:101C80002864361DF5E7601CB880D7E70020B861EE
:101C9000F8613862B8800298B870CFE77000002011
:101CA00081260008FFFFFF7F440100200000204143
:101CB0000AD7233D022B873C0000F041FEB502927B
:101CC000FEF7BEFA01463348FEF7BAFA00F0EEFC22
:101CD00004461D49FEF777FA7F21C9050191FEF7F9
:101CE00019FA054620462146FEF76DFA07462946B1
:101CF000FEF710FA064638463146FEF7A1FA0546C9
:101D000002980561856011492046FEF75CFA019949
:101D1000FEF700FA01463846FEF7FCF93146FEF7B9
:101D20008FFA029C60600A493846FEF7F3F90146D3
:101D3000FEF7F0F93146FEF783FA2060284629467F
:101D4000FEF7E8F9E060FEBDF304B53FF304B5BF6C
:101D5000000080BF70B504460E4D114E2046294646
:101D6000FEF7D6FA002805D020463146FEF7D2F914
:101D70000446F3E7084D094E20462946FEF7BAFA15
:101D8000002805D120463146FEF7C4F90446F3E7A2
:101D9000204670BDDB0F4940DB0F49C0DB0FC94057
:101DA000DB0FC9C0F0B4040C8BB2264682B25E438E
:101DB0000D0C1046370C5843360480190021794128
:101DC00016466E43370C36048019794126466E4319
:101DD0008919F0BC70474100080200D004200A0EA7
:101DE00001D001221043090EFF2901D1022108432D
:101DF000012800D10520704710B50121FEF736FB00
:101E000010BD10B5FEF786F910BD10B500210846CB
:101E1000FEF716FA10BD5E2110B5C9430807FEF79C
:101E200025FB10BDF0B50E4614465100FF221206E8
:101E300087B0914203D31116316007B0F0BD012085
:101E40002502C0070543E00D7838C206D20E2020D7
:101E5000871A6000000E7838401181004D487844A0
:101E60000B189C464358002A14D0604640689340A3
:101E70000146F84003436046806891408646F8403A
:101E80000143039160467146C0689140F8400143A8
:101E90000F4603E06046416803918768184629466B
:101EA000FFF780FF0291049029460398FFF77AFF1D
:101EB0000391069038462946FFF774FF0F460698AF
:101EC000029B3D18049A0399BD4201D2012700E00C
:101ED00000278818C019002F02D0884202D903E0D9
:101EE000884201D2012100E0002159180A4620321F
:101EF0009709C20C890652034003376011430190D1
:101F00000846FEF735FB02900198FEF73CFB1221D4
:101F1000C943FEF7ABFA01902846FEF734FB2521B2
:101F2000C943FEF7A3FA009001990298FEF7F2F870
:101F30000099FEF7EFF80121C9024018050B2D03A7
:101F400028460299FEF737F90199FEF734F900990E
:101F5000FEF735F91049FEF736F900900F4928468B
:101F6000FEF731F90099FEF7D5F800900C492846A4
:101F7000FEF729F90099FEF7CDF8002C00DB5CE7AD
:101F800001210907C91B31600121C907484007B079
:101F9000F0BD0000BA090000DB0FC92F22AAFD29FD
:101FA0000000C92F02E008C8121F08C1002AFAD198
:101FB00070477047002001E001C1121F002AFBD1C9
:101FC00070470000014908607047000000000020D1
:101FD000F8B504464721400049060D224118120673
:101FE000914253D83F21490688421BD960007F2186
:101FF0004008C905FEF7E3F80021C943FEF736FAA9
:10200000074600F03DFB002C04DA2F4D2D4EA907AA
:10201000484001E02D4E2E4D03218907FEF7D3F8ED
:10202000044606E00026214635460846FEF7CBF872
:10203000074628493846FEF7C6F82749FEF76AF8EA
:102040003946FEF7C0F82549FEF764F83946FEF731
:10205000BAF82349FEF75EF83946FEF7B4F821498D
:10206000FEF758F8009039462046FEF7ACF8009984
:10207000FEF7A9F8074629462046FEF74BF83946F1
:10208000FEF748F83146FEF745F8F8BD3921490614
:10209000884208D22046FFF79EFE042801D1FFF7B0
:1020A000BAFE2046F8BDFF210906884203D9204622
:1020B000FFF7A2FEF8BD0120FFF784FFFFF7A5FEA2
:1020C000F8BD00000000C9BF22AAFDB90000C93F49
:1020D00022AAFD3924FE1C3DC78AD83C1E67383D24
:1020E0001B93993DAFAA2A3EF0B50C4601461D222E
:1020F0004B00D2069F18E52605463606620087B0DB
:102100002046B7427BD21D27FF06D719B74276D2A9
:102110004F0043003E0E1A0EB21A1B2A07DD00299B
:1021200002DA854807B0F0BD844807B0F0BD1A2632
:10213000F2422FDA002807DA002902DA804807B0D5
:10214000F0BD804807B0F0BD21462846FEF778F87C
:102150000646FFF740FE042801D1FFF75CFE284643
:10216000FFF739FE05462046FFF735FE04463046A8
:10217000FFF731FE042D01D0052D08D1042C01D02C
:10218000052C04D1002802D10220FFF71BFF3046A6
:1021900007B0F0BD9F4211D9002902DA6A4F6B4E99
:1021A00001E06B4F6B4E23462C461D460122034631
:1021B000D20708465440504019460BE0002807DA81
:1021C000002902DA644F654E04E0654F654E01E078
:1021D00000263746421A012352001B069A422FD28C
:1021E000484061490CD5BF20000602903846FDF7F3
:1021F000E2FF07465D493046FDF7DDFF0BE053E0A7
:102200003F20000602903846FDF784FF07465749F5
:102210003046FDF77FFF064628460299FDF7D3FFBB
:102220002146FDF777FF009021460298FDF7CBFF8E
:102230002946FDF7C4FF0099FEF702F8044604E0C2
:1022400021462846FDF7FCFF04460146FDF7BBFF8B
:1022500047490090FDF7B7FF4649FDF75BFF00993E
:10226000FDF7B1FF4449FDF755FF0099FDF7ABFFBE
:102270004249FDF74FFF0099FDF7A5FF4049FDF7E3
:1022800049FF054620460099FDF79DFF2946FDF7C9
:102290009AFF3146FDF73EFF2146FDF73BFF3946E9
:1022A000FDF738FF07B0F0BDFF263606B34201D870
:1022B000B24205D901462846FFF7A3FD07B0F0BD9D
:1022C0002F4607437F000AD0B3420CD1B2420AD155
:1022D00001229207904391430D46044618E7FF22DE
:1022E000D2051043F9E7B3420CD047000AD0B242FE
:1022F0000ED04E000CD05340F0D4002A0EDB9F26A7
:10230000F6050DE0FF22D2051143E00FC007FFE6FE
:10231000C90FC907FF22D2051043F9E65F26F6056B
:1023200031462846FDF74FFF054631462046FDF76A
:102330004AFF04462946EBE6DB0FC9BFDB0FC93F66
:10234000DB0F49C0DB0F49400000C9BF22AAFDB91D
:102350000000C93F22AAFD39000049C022AA7DBA67
:102360000000494022AA7D3A0060ED3EC30ACE3704
:102370002DAD65BD8FB8D53D0FB511BE61C84C3EC2
:10238000A8AAAABEF0B5024604464E4B83B0400050
:102390006946984209D273210906884202D2002078
:1023A000C04300E00020009030E05000464B400861
:1023B00098426CD245491046FDF705FFFEF78EF8AE
:1023C0000746FEF7AAF88007800F0090404938467C
:1023D000FDF7F9FE01903F493846FDF7F4FE064649
:1023E0003D493846FDF7EFFE05463C493846FDF7C6
:1023F000EAFE2146FDF7E3FE2946FDF7DCFE314605
:10240000FDF7D9FE0199FDF7D6FE044625467F2744
:10241000009CFF05002C3EDBE007314E29460846B4
:102420001BD0FDF7D0FE07462E49FDF7CCFE2E4906
:10243000FDF770FE3946FDF7C6FE2C49FDF76AFE32
:102440003946FDF7C0FE2946FDF7BDFE2946FDF7DA
:1024500061FEA10718D503B0F0BDFDF7B4FE054637
:102460002349FDF7B0FE2349FDF754FE2946FDF749
:10247000AAFE2149FDF74EFE2946FDF7A4FE394686
:10248000FDF748FEA107E6D5704003B0F0BD104649
:10249000FFF7C8FCB9E7FF2168000906884202D2AD
:1024A000384603B0F0BD884206D10120FFF78AFD0F
:1024B000FFF7ABFC03B0F0BD2846FFF79DFC03B06F
:1024C000F0BD0000B61F927E490E494683F9223FB7
:1024D0001A61342C0020A23300A0FD390000C93F4E
:1024E00000000080336D4CB9DA82083CA0AA2ABEF5
:1024F000B93AB2BACA9F2A3DDDFFFFBEF0B5024627
:102500000446514B83B040006946984209D273217A
:102510000906884202D20020C04300E0002000905B
:1025200030E05000494B400898426BD24849104671
:10253000FDF749FEFDF7D2FF0746FDF7EEFF8007E6
:10254000800F009043493846FDF73DFE0190424917
:102550003846FDF738FE064640493846FDF733FE5B
:1025600005463F493846FDF72EFE2146FDF727FE7A
:102570002946FDF720FE3146FDF71DFE0199FDF7C6
:102580001AFE04462546009C002C3FDBE007354E32
:10259000294608461AD0FDF716FE05463249FDF7D2
:1025A00012FE3249FDF7B6FD2946FDF70CFE304913
:1025B000FDF7B0FD2946FDF706FE7F21C905FDF7B1
:1025C000A9FDA10700D5704003B0F0BDFDF7FBFDEC
:1025D00007462849FDF7F7FD2749FDF79BFD3946DA
:1025E000FDF7F1FD2549FDF795FD3946FDF7EBFDBA
:1025F0002946FDF7E8FD2946FDF78CFDA107E2D449
:1026000003B0F0BD1046FFF70DFCBAE7FF216800EC
:102610000906884209D22846FFF7DDFB042801D1CC
:10262000FFF7F9FB284603B0F0BD884206D1012030
:10263000FFF7C8FCFFF7E9FB03B0F0BD2846FFF742
:10264000DBFB03B0F0BD0000B61F927E490E494689
:1026500083F9223F1A61342C0020A23300A0FD39F7
:102660000000C93F00000080B93AB2BACA9F2A3DB3
:10267000DDFFFFBE336D4CB9DA82083CA0AA2ABE4A
:1026800070B50546FDF7FEFE41000446FF204908EF
:10269000C005411AC90F07D069004908401AC00F88
:1026A00002D10120FFF78EFC204670BDF0B5024636
:1026B00004464C4B83B040006946984209D27321CE
:1026C0000906884202D20020C04300E000200090AA
:1026D00030E05000444B4008984262D243491046D3
:1026E000FDF771FDFDF7FAFE0746FDF716FF8007BF
:1026F000800F00903E493846FDF765FD01903D4949
:102700003846FDF760FD06463B493846FDF75BFD60
:1027100005463A493846FDF756FD2146FDF74FFD7F
:102720002946FDF748FD3146FDF745FD0199FDF7C6
:1027300042FD0446009D002D37DB21460846FDF78B
:1027400042FD06462E49FDF73EFD2E49FDF7E2FC0F
:102750003146FDF738FD2C49FDF7DCFC3146FDF72D
:1027600032FD2A49FDF7D6FC3146FDF72CFD2849FC
:10277000FDF7D0FC3146FDF726FD2649FDF7CAFCE2
:102780003146FDF720FD2146FDF71DFD2146FDF7F1
:10279000C1FCE90703D001461F48FDF751FD03B016
:1027A000F0BD1046FFF73EFBC3E7FF2160000906BE
:1027B000884209D22046FFF70EFB042801D1FFF71B
:1027C0002AFB204603B0F0BD884206D10120FFF766
:1027D000F9FBFFF71AFB03B0F0BD2046FFF70CFB37
:1027E00003B0F0BDB61F927E490E494683F9223FE1
:1027F0001A61342C0020A23300A0FD390000C93F2B
:10280000BCE9223C0B6D063B8A76CE3CACB5593D0B
:1028100035A1083E29AAAA3E000080BF00000000A2
:102820006E83F9A22915444ED15727FCC0DD34F53B
:10283000999562DB4190433CAB6351FE0000000080
:102840000000000000000000000000000000000088
:102850000000000000000000000000000100000077
:102860000200000003000000040000000600000059
:1028700007000000080000000900000000093D00FA
:1028800000127A00000000000000000000366E0117
:10289000000000000000000000000000C028000848
:1028A0000000002070000000A41F0008302900086C
:1028B0007000002028050000B41F00080000000080
:1028C000000000000000803F9A99993E8FC2F53CBD
:1028D0000AD7A33B0000803F00000000000000007A
:1028E000000000000000803F000000000000000029
:1028F000000000000000803F00366E0171CFC7BFAE
:102900009E2F243FDF85A43CDF85243DDF85A43C4A
:102910000AD7233C1B6F3FBFC25F8B3EC640063EBB
:10292000C640863EC640063E01000000040000008E
:04000005080000C12E
:00000001FF
