:020000040800F2
:10000000800B0020D50000087D0A00082D0700089D
:1000100000000000000000000000000000000000E0
:10002000000000000000000000000000CF0D0008EC
:1000300000000000000000007F0A0008D10D000849
:10004000000000000000000000000000E7000008C1
:10005000E7000008E7000008E7000008E7000008E4
:100060000000000000000000000000000000000090
:10007000E7000008550E0008E70000080000000037
:1000800000000000E7000008000000002D0E00083E
:10009000000000000000000000000000E700000871
:1000A00000000000E700000800000000E700000872
:1000B0000000000000000000000000000000000040
:1000C0000348854600F0B0FA004800474919000887
:1000D000800B00200448804704480047FEE7FEE705
:1000E000FEE7FEE7FEE7FEE7D50D0008C1000008C9
:1000F000F0B51FB40646002082B0054640240191A9
:1001000000901BE0019922460F46304600F0E3F9CB
:10011000049A059B801A994110D31046194622462D
:1001200000F0C9F9361A8F410197224601200021BB
:10013000009F00F0C0F938184D4100902046641E21
:100140000028DFDC019B00982946324607B0F0BD4D
:1001500003460B439B0703D009E008C9121F08C0E0
:10016000042AFAD203E00B780370401C491C521E8B
:10017000F9D27047D2B201E00270401C491EFBD296
:1001800070470022F6E710B513460A4604461946A2
:10019000FFF7F0FF204610BDF8B502464A40D40FE5
:1001A00042004B0052085B089A4202D202460846BF
:1001B00011464A0023D0C30D4A00DDB2120EAD1A1B
:1001C000202D35DA49020126490AF6058A19002C44
:1001D00000D0524220214F1B1146B9402A4110182D
:1001E000C20D9A4221D0002C17D0012D08DCDA056F
:1001F000801AD20F8019D207DBB200F085F9F8BD62
:10020000DA05801A012340001B06C01880185A42E4
:100210008018CA0F1043490007E04908C20711437C
:10022000DA05801A80194008801800F065F9F8BDD9
:1002300061000122511A001BF7E70122D207514049
:10024000AAE70122D2075040A6E7024670B54A400D
:10025000D30FDB0740002DD04A002AD0010E140E28
:10026000000212020919400A520A8418E5010446E4
:100270005443000A120A2E045043A4194219200CB8
:10028000C543AA18120C0125AD03521C52191204C1
:100290007F39240400D0521C104301D44000491E71
:1002A000C2B20C06C0092018401C4008802A02D0A7
:1002B00003E0002070BD40084000002900DA002063
:1002C000184370BD70B502464A40D50F40004A0041
:1002D000ED0740085208002814D0002A12D0C40D9F
:1002E000D30D41020120C0055202490A520AE41A04
:1002F000091812187D34914201D3641C00E04900B2
:10030000002C01DA002070BD0023914201D3891A2C
:100310000343400849000028F7D100290AD0914240
:1003200002D10121C90705E0914201D2012101E07A
:100330000121C943E005C018401900F0DDF870BD87
:100340000122D207002800DB101A002900DB511A15
:10035000814201D801207047002070470122D20756
:10036000002800DB101A002900DB511A814201D25B
:1003700001207047002070470122D207002800DBCF
:10038000101A002900DB511A814201D30120704765
:10039000002070470122D207002800DB101A002934
:1003A00000DB511A814201D90120704700207047BB
:1003B00010B5002904DB0C460121C9074042A141C8
:1003C000002B04DB1C460123DB075242A341801AA9
:1003D000994101D3012010BD002010BD10B50029A6
:1003E00004DB0C460121C9074042A141002B04DB7C
:1003F0001C460123DB075242A341801A994101D2D6
:10040000012010BD002010BDC217C10F504010B513
:100410004018CA079623002100F076F810BDC20FDD
:10042000410040020123400ADB05D207090EC01833
:100430007F2901DA00207047962903DC9623591A98
:10044000C84001E096398840002AF4D04042704705
:10045000C20FD207400040080BD0C10D0723DB01BB
:10046000C91840020905400A1143C2084007114358
:10047000704700200146704770B50446002903D03C
:1004800000202022012310E0002801D00020C043DA
:10049000C046C0460DE02546D5408D4205D30D46E9
:1004A0009540641B1D46954040191546521E002D6F
:1004B000F1DC214670BD10B5202A04DB0146203A4C
:1004C0009140002010BD914020239C1A0346E34038
:1004D0001943904010BD10B5202A04DB0846203A8D
:1004E000D040002110BD0B46D340D0402024A21A9A
:1004F00091400843194610BD002904DA401C490008
:1005000001D140084000704770B40024050C05D1AB
:100510001024000402D1002921D01124050E01D19C
:1005200000020834050F01D10001241D850F01D1FF
:100530008000A41C002801DB4000641C002908D0B6
:1005400020252E1B0D46F540A14000D00121294356
:10055000084301061B1B000ADB1D02D5002070BCEE
:100560007047DB05181880180029F8DA401C49008C
:10057000F5D170BC400840007047420005D04200F1
:10058000120E52428A4201DB00207047C90508184A
:10059000704770B5002801DC002070BD41004002AA
:1005A0000126400AF605090E8019CA0701D140004C
:1005B000491E4D10002211463F353346CB409B1853
:1005C000D418844201D8001B1A464000491C172940
:1005D000F3DD5100814202D20021C94300E0002135
:1005E000E8058018FFF788FF70BD10B541000DD0F9
:1005F0004100090E962909DC7E290ADC07DB41024D
:1006000005D0C00F7F21C007C905401810BD0020CC
:1006100010BD9622541A20210A1B01469140E04049
:10062000FFF76AFFA04010BD064C0125064E05E00D
:10063000E36807CC2B430C3C98471034B442F7D303
:10064000FFF742FDFC3B00081C3C000810B50022EF
:1006500096231146FFF758FF10BD000010B516484D
:10066000016801221143016014480188144843685D
:10067000144C1C400C434460110202680A4302609F
:1006800001684905FCD50F21090282688A4382600E
:10069000826807218A43826082689206520FFBD1EA
:1006A000090382688A438260074C204600F06AF999
:1006B000204600F0B5F910BD002002400001FF1FE8
:1006C0000010024000E0FFFF006CDC02FEB51446A3
:1006D0000F4601900E684D6802954E6011683046D5
:1006E000FFF7B3FD01460198FFF7A7FD0190616890
:1006F0002846FFF7AAFD01460198FFF79EFD054633
:100700003860E1683046FFF7A0FD0646A16828463C
:10071000FFF79BFD3146FFF73FFD05462169029833
:10072000FFF793FD2946FFF737FDFEBDFEE700000A
:10073000014602680079002810D0002A15D04879B7
:10074000022814D0012816D000281DD11F48436864
:100750009343436003681343036013E01B4801683D
:100760009143016041689143416000207047174800
:100770000368134302E0154803689343036043682A
:1007800013434360002000E00120897903290ED83B
:100790007944097949008F4401020C10E6E70C49BD
:1007A0004B6893434B600B6813430B607047801C8E
:1007B000704707490B68934302E005490B681343F0
:1007C0000B604B6813434B607047C0468018024073
:1007D00000180240FEB50190002000910C682346ED
:1007E000C3403CD0012383401C4036D002902346B6
:1007F00063434D681E466E4303275F4301980268BA
:10080000BA4332430260FE436A1E012A05D88A6851
:100810005A4387683740174387600A695A43C76855
:1008200037401743C760022D029816D1270A01D01E
:10083000242400E020244D6901980659002F03D09C
:100840007F437F433B4600E05B4307225A43964386
:100850005D433543055100990298401CBEE7486846
:10086000401E012806D8C968614301984268A24326
:100870000A4342600020FEBD81B004480168009137
:10088000009940680090009801B0704714540040EF
:10089000F0B587B00E4604460068012102918843F6
:1008A000206004A800F07EF82B4906980190FFF71D
:1008B000E3FD07463F20C543606828403843606039
:1008C0004B20800078437D21C900FFF7D5FD234AE6
:1008D000531C03963168994200D30746781C236A5B
:1008E0002B40034323621E4F914205D9039845686C
:1008F000002D0AD0192009E049000198FFF7BCFD3E
:10090000384200D10420029B0DE0032041430198AE
:10091000FFF7B2FDF91C0842029B194600D00146C0
:100920000D43D8032843E1690E4A0A400243E261BD
:10093000A068FE218843039A91680143A160206862
:1009400018432060980221688143D06808432060E2
:10095000002007B0F0BDC04640420F00A086010055
:10096000FC0F00000030FFFF81B005480168022243
:1009700011430160006810400090009801B070477A
:100980003410024080B57D21C900FFF775FD401E7F
:1009900003494860002088600520086080BDC0468B
:1009A00010E000E010B5044600F06AF820600A4943
:1009B0000A6892093C231340084AD2581F231A4060
:1009C000D04060600968890A1C220A40044989589D
:1009D0001940C840A06010BD08100240283B000824
:1009E000683B00080B4802680B490B68120C5A4020
:1009F000D20508D0094A00684968000C48401042F6
:100A000004D0002070470120C00370474B204002F3
:100A10007047C046041002404401FF1FFF01000060
:100A2000014908607047C0464C000020B0B504681A
:100A3000104A114B984202D0904209D103E0702530
:100A4000AC434D682C4303252D02AC43CD682C43A9
:100A500004608C68C4620C888462984201D0904221
:100A600001D1097C0163416901220A4342610020EE
:100A7000B0BDC04600200040002C014070477047C8
:100A800010B50B4CA0688006400F01280ED003283B
:100A900001D1FFF7A7FF6068C00A1C21014006488A
:100AA000405821688904490FC84010BD014810BD55
:100AB0000010024000366E01883B0008F8B514466D
:100AC0000D46064622480078002801D100F008FAB9
:100AD000EFF31087012181F3108830462946224622
:100AE00000F004F887F31088F8BDC046F8B5144646
:100AF0000D461821414316484618F06A1836022858
:100B000010D0012815D0002700281ED1304600F053
:100B10001FFAA04219D330462946224600F0F4FAC3
:100B2000274612E030462946224600F0BFFA074623
:100B30000BE0304600F00CFA0746A04200D32746EF
:100B4000304629463A4600F0DFFA3846F8BDC0463E
:100B500098010020F0B59FB007920E4602901E90BB
:100B600000271C9740201B900AA81A901D973178E7
:100B70003046761C252906D0002900D117E11AA895
:100B800000F074FA8DE0801C00253178232907D00D
:100B90002B2907D02D2907D030290AD1022104E0C2
:100BA000082102E0042100E001210D43401C761CD5
:100BB000EBE700240897302909D3392917D80A22EE
:100BC00062435418303C401C7178761CF3E72E29A0
:100BD0000DD100270921CA4301780B463A3B9342C5
:100BE00007D30A227A435718303F401CF2E7002708
:100BF00000E00646761C0846633809280DD8C04632
:100C0000784400794000874451574C4C4C044C4C7C
:100C10004C04701C31780646EDE708467038082809
:100C200015D8C0467844007940008744043A3A1EFB
:100C30003A2E3A3A1400079A1068011D11600168B3
:100C400000200823009301901AA8102227E02529EC
:100C500055D0582925D1079A1068011D11600168E7
:100C6000009401951AA8102218E0079A1068011D37
:100C7000116004682178002913D01AA800F0F6F951
:100C8000641C1D980028F5D50BE0079A1068011D1B
:100C900011600168009401951AA80A223B4600F0F1
:100CA00063F91D9F002F00D461E78DE0079A10685B
:100CB000011D1160017862E7079A1068011D11603B
:100CC0000268D01711464140081A06925142049119
:100CD000012109910A2805D30A21FFF7CDFB0999C3
:100CE000491CF6E70998B84200D80997002C09D0AA
:100CF0000698002801D4680705D5641E03E01AA8E9
:100D000025213DE70024022129400596039101D0C9
:100D1000002F13D0E80711D1002C0FD0661EA64279
:100D20000CD20998A04209D21AA8202100F09EF9FD
:100D30001D98089000283446F0D521E00898002836
:100D4000059EAED40698002804D4680704D40698FB
:100D500004900AE02D2102E02B21069804901AA8A5
:100D600000F084F91D9800289BD40398002809D12D
:100D7000009401951AA80A2204993B4600F0F4F861
:100D8000059E8EE7012028403843F1D1002CEFD09A
:100D9000661EA642ECD20998A042E9D21AA83021D8
:100DA00000F064F91D9800283446F1D5E8E7002FDB
:100DB00009D01C9D002D04D00AA902982A46FFF7ED
:100DC0007DFEEF1900E0002738461FB0F0BD7047E8
:100DD0007047000081B00F4801680F4A0A400F4970
:100DE0000B889A18026002680D4B1340496CC905C4
:100DF000C909C91801600120C0060A4908600A48EB
:100E0000009000BF0098411E00910028F9D101B068
:100E10007047C046041002400000FFFF0001FF1FA2
:100E2000FFFF00FE08ED00E0E09304000748416882
:100E3000C9070AD00168C90707D00121CA43426027
:100E4000034801704178491C417070470C200040F4
:100E5000A800002013484168C90722D00168C907CB
:100E60001FD00121C94341600F48017A012904D0F4
:100E7000022916D10021017270470188C268E0235F
:100E8000D35A994209D2525C491C01800748FF2A73
:100E900000D0103080210160704700218160C16066
:100EA000018070470C2C0140900000201804005075
:100EB000B0B57D21CD00454300F04EF9044600F069
:100EC0004BF9001BA842FAD3B0BDB0B5044600F000
:100ED00043F9054600F040F9401BA042FAD3B0BDEB
:100EE00010B5124CA8212046FFF74BF903202061D2
:100EF00060610F49A1610F48E0610120800220621A
:100F00000020A0626062E06221660B4961661021E8
:100F1000A1662067E066606708A10F31102804D041
:100F20000A782254491E401CF8E710BD98010020A1
:100F3000F03B0008500200204002002000000000AA
:100F400000005454522052454747455300000000CA
:100F5000C2680169914201D9D04302E0D2438918A5
:100F60008068081870470000F0B587B003931746F3
:100F7000059001260D9D0C9C01910846B84204D3B2
:100F80003946FFF779FA761CF8E706970127039BA5
:100F90009E4200D81E4628463840002C04960290F7
:100FA00018D0002816D12020A90701D4054600E05A
:100FB0003025002B00D00546002C0BD0A64209D2CC
:100FC000059E3046294600F051F8641EF068049EE4
:100FD0000028F1D50598C06800283DD40094019DF3
:100FE000039C022C02D3641E069906E0284639466B
:100FF000FFF742FA0699884201D34F43F1E7059E75
:1010000028463946FFF738FA044614A0015D3046F9
:1010100000F02CF8F068002809D47C432D1B3846DA
:10102000069C2146FFF728FAA7420746E8D2029815
:101030000028049E00980FD000280DD0059D441E66
:10104000844209D2864207D22021284600F00EF8B9
:10105000E86800282046F2D507B0F0BD30313233C1
:1010600034353637383941424344454610B5044695
:1010700042688368581C904201D9184606E02268ED
:10108000D154A060E168491CE1606268904208D1D7
:1010900021682069FFF712FDA168884202D1002073
:1010A000A06010BD0020C043E06010BDFEB5164634
:1010B0000D46C768002101900269BA42029103D926
:1010C000F9435418826803E0F943511882688C1878
:1010D0004168D21B944200D31446C819B44200D3CD
:1010E000344629462246FFF733F8E719019881680C
:1010F0008F4200D100270299C760361B2D19611855
:10110000002ED9D10846FEBDF8B515460446406804
:10111000A268E6688019971BAF4204D92A46FFF7F8
:1011200017F8751909E00E463A46FFF711F8F1195C
:10113000ED1B60682A46FFF70BF8E560F8BD00007C
:1011400080B504480078002800D080BD00F0DAFBAC
:1011500080BDC0468400002010B50B4802460F3207
:101160000A49096811400A4B14CB083BA14201D936
:10117000521C1A605960484011060818110A3022A2
:101180000023FEF7B5FF10BDF0FFFF0018E000E000
:10119000A0000020B0B50C460546FFF7DDFF401B60
:1011A000A04201D20020B0BD0120B0BDF0B58BB08F
:1011B000FFF7DAFBFFF7D8FB012677051849086926
:1011C0003843086108693840019006240A9409965A
:1011D0000896022007900690082005900198C548BF
:1011E00005AD2946FFF7F6FA0A9410200590C1488C
:1011F0002946FFF7EFFA0A4908683843086008688B
:10120000B843086000200490A0200390B00302902F
:1012100004480190A44801A9FFF73AFB0BB0F0BDC8
:101220002C100240801A0600172080020068034933
:101230000870020C8A70000A487070478806002007
:1012400010B5094C00202080FFF786FF01210143E3
:10125000616010BD04480178002904D0417800295C
:1012600001D101214170704750060020F0B587B0D0
:101270001C46154604918B490A68002AFCD10222BB
:101280000A600123D902884E326800918A43326095
:101290009902326801910A4332601A02316803925E
:1012A000114331607169C907FCD00593FE21069096
:1012B000029108403169FF27B9430818306170690D
:1012C0008007FCD5FFF7D8FA70690006FCD53069B5
:1012D000B8430499C9B240183061059A7069400753
:1012E000FCD5306803990843306006997069C007DF
:1012F000FCD03069029B98431143C9B2014331616C
:1013000070698007FCD557023C49022C09D0012C9A
:1013100014D0002C1ED1FFF7AFFA3068384330608C
:101320001EE0306800990843306072B6FFF7A4FAF7
:10133000324B30681840306062B658E03068084080
:10134000306072B6FFF798FA2C4B30683843306043
:1013500062B64CE03068019908433060FFF78CFAC0
:10136000264B44E021462846A2B2042A12D2012A82
:101370001FD0022A25D171694907FCD572B63168A0
:10138000394331603169017062B631694170851C41
:1013900000242CE072695206FCD5326902704C1EA2
:1013A000451C7269520722D5326942708C1E851C19
:1013B0001DE071694906FCD531690170451C0024A6
:1013C00015E072695207FCD532681A40326072B675
:1013D0003269027072695207FCD532683A43326052
:1013E0003269427062B632698270CC1EC51C22041A
:1013F000B8D100202B49086007B0F0BDFFFBFFFF0C
:10140000FEB51D4614460191264A11680029FCD1FB
:1014100001231360D902244E32688A43326002935A
:10142000190232680A4332607169C907FCD0FE2193
:1014300008403169FF27B943081830617069800797
:10144000FCD5FFF719FA70690006FCD53069B8437E
:10145000019940183061134B28041BD070690006B5
:10146000FCD520783169B94308183061681E611CC9
:101470007269520708D5020406D060783169B94311
:1014800008183061A81EA11C72695207FCD50C46D1
:101490000546E1E7029840023168014331600020CF
:1014A0001860FEBD8006002000540040002801D0D6
:1014B000014988607047C04624010020F8B51446F1
:1014C0000D4606460027032F12D2002E08D0012019
:1014D000C1028E4207D08002864207D1A04803E0B5
:1014E0000520000700E09F482946A0477F1CEAE747
:1014F000F8BDC04600040050494303224A43036834
:1015000093430360C3689343C360C2680A43C260E5
:10151000704710B50A464A430323534304689C436B
:10152000046003681343036042690A43426110BDCB
:1015300042690A434261704742698A434261704787
:10154000F0B585B00F2007020025E94E554C082D57
:1015500007D0705BC1B238402246FFF7AFFFAD1C29
:10156000F5E7514D28784000305A38402978490035
:10157000715C4E4AFFF7A2FF0020DF494C4A034648
:10158000042809D016680C78B44301D001248440A3
:101590002343891C401CF3E7D8B20390012001903B
:1015A0000027444B3A462878082F72D0C0003C18D8
:1015B0006968E140032631400398D040C0070ED04F
:1015C00001292FD0002958D104931546FFF7C4FDF7
:1015D0002A46049B344D01210843A8604DE0481E73
:1015E00001284AD802920493FFF7B6FD00226A61EF
:1015F000EA7301210143A960287B002839D0401EED
:10160000287329784900049B5A5A29460C31C0B2E4
:1016100008184178401C8A4200D06973002101708B
:10162000019129E002920493A8682349FFF7B2FDD3
:1016300000281CD00020286101200190E873FFF7EA
:101640008BFD019908436861287B022101280191E3
:10165000049B029A11D8411C297329460C310818A1
:1016600029784900595C41700221019105E001216E
:1016700001E001921146049B029AA6406868B043BB
:101680006860A1406868084368600833BF1C521C4A
:1016900089E7401C0321014029700198C0B205B0C0
:1016A000F0BDC0463115000878000020391500084B
:1016B00010000050C83B0008307500007CB50522C2
:1016C0001207904204D0264A904203D1012008E03C
:1016D000002006E0234A904202D00020C04300E0F0
:1016E0000220032212044B1E072B09D87B441B79CE
:1016F0005B009F441D030D120D0D0D15612210E0BE
:10170000102910D0202910D0402901D1164A0FE00D
:1017100080290CD00022D2430AE03122120307E0D4
:101720006322D20204E0521C02E0104A00E0104A98
:10173000130ADBB2140CE4B29C409207120F0D4D59
:101740005659A64398403043505168460222827150
:10175000FF22023282800091FEF7EAFF7CBDC04684
:1017600000040050000800500110010001080100B1
:10177000011801006018024010B5024690488378B5
:1017800044780120944202D18B4200D110BD8C429A
:1017900001D19342FAD0002010BDC04680B5002090
:1017A00001F0CCFA00F0AEF880BD000010B5844C1A
:1017B0002078002822D0A068E1780A46024305D1AB
:1017C000FFF7CAFC0121E1700843A06001290AD19A
:1017D000002808D00A49FFF7DDFC002801D00220CC
:1017E0000BE0A068E178022908D1002806D005495D
:1017F000FFF7D0FC002801D00320E07010BDC046E8
:10180000C0C62D0020AA4400B0B51F4C20687D2121
:101810008901FFF7BFFC002834D0FFF79DFC0125AC
:1018200028432060FFF78CFEFFF7C0FF644CE07890
:10183000032818D0022819D0012821D120780128A6
:101840000CD160681149FFF7A5FC002805D0FFF70F
:1018500083FC2843606000F0A1F8207802280FD1B3
:1018600001F0C0FB0CE0FFF799FF09E020780128A8
:1018700002D100F081F82078022801D101F096FB16
:10188000FFF75EFCB0BDC04684060020400D03009B
:10189000F8B5B548016807220A4302600F20050227
:1018A0000026134F134C082E07D0B85BC1B2284056
:1018B0002246FFF703FEB61CF5E700270E4E0F4C3D
:1018C000082F07D0F05BC1B228402246FFF7F6FD93
:1018D000BF1CF5E700270A4C082F07D0F05BC1B208
:1018E00028402246FFF7EAFDBF1CF5E7F8BDC046D9
:1018F000E83B000813150008B03B0008F914000885
:10190000BD160008014808210160704728000050FA
:1019100081B09548016801221143016000681040C0
:101920000090009805200007016840220A438021AA
:101930008A4302600821816201B070470148082192
:10194000016070471800005001F065FB02A001F033
:101950009DFA00F007F8FCE72D2D2D3E3E3E200DB0
:101960000A00000080B5FFF775FC00F033F9FFF7BF
:101970004BFF01F061FA80BD80B5114840780D2819
:1019800003D00C2806D1142000E00E20002101F025
:1019900097FA80BD00F002F880BDC04670B5002007
:1019A000074C084D102809D0461C61788E4203D19F
:1019B000285C002101F084FA3046F3E770BDC04690
:1019C00084000020B83B0008F0B587B003A8009160
:1019D000417206920021084604291DD00191314B25
:1019E000595C02910726711C13D20124B44002995C
:1019F0000C400021CF43002C3D4600D1254683B248
:101A0000D554002C00D00F46D1184F70761E801C84
:101A1000E9E70199491CDFE781B2531800240A2C39
:101A200006D00021032C00D2C9431955641CF6E7E7
:101A300001460A3189B2FF235354511800234B70D9
:101A40000C3000998B421DD003A90193C95C02910F
:101A50000725691C13D20121A940029B19400027C8
:101A6000FE430029344600D10C4683B2D4540029E9
:101A700000D03E46D1184E706D1E801CE9E7019BD8
:101A80005B1CDEE781B251180023052B03D0002434
:101A9000CC545B1CF9E7401DE0215052002007B0F8
:101AA000F0BDC046A83B000880B513460A46014673
:101AB000D620FFF7DBFB012080BD00007CB5574C32
:101AC000204634302146403100F028F9606B214631
:101AD0004C31D14D184E2A46B0476060A06B21466C
:101AE00054312A46B047A060E06B21465C312A465B
:101AF000B047E060206C21466431C64D2A46B047AD
:101B00002061606C21466C312A46B0476061A06C50
:101B1000214674312A46B047A06120462830019002
:101B2000064A101D0090201D214610311C3423460A
:101B300000F0CCFB7CBDC046CD06000804000020B0
:101B400081B0094801680222114301600068104019
:101B500000900098054801680123194391430160F2
:101B6000836201B07047C046341002400004005048
:101B7000F8B56020B62100F02DF90A20FFF798F99A
:101B8000002000F08DF8044605281DD10220102108
:101B90000F4FB847032626213046B8470420472177
:101BA000B847062000252946B84708203146B847DF
:101BB00009202946B8470A202946B8471320294654
:101BC000B84714202946B847611F48424841F8BD2C
:101BD000D51D000870B5114E3078002803D00020C4
:101BE0003070FFF76BFF70780521FEF745FC002988
:101BF00000D070BD00207070F069FEF710FC044644
:101C0000306AFEF70CFC0546706AFEF708FC0346D6
:101C100003A021462A4601F039F970BDA800002032
:101C20002D2D2D3E3E3E2070746963683A256C640C
:101C30002C726F6C6C3A256C642C7961773A256C48
:101C400064200D0A000000007FB504460025062D23
:101C500008D028463530C0B200F022F802A9485515
:101C60006D1CF4E76846029901800399818002A9FE
:101C7000498841800026094D062E0DD06846805FB8
:101C8000FEF7C2FB7321C905FEF7DFFA2946FEF70E
:101C9000DCFA01C4B61CEFE77FBDC0460AE81C4170
:101CA0001CB50146D62001AC01232246FFF7DEFA1F
:101CB00020781CBDF0B585B004460025062D08D05F
:101CC00028463B30C0B2FFF7EBFF03A948556D1C17
:101CD000F4E701A8039901800499818003A9498848
:101CE000418000270B4D0C4E062F10D001A8C05F7D
:101CF000FEF78AFB0F218906FEF7A7FA2946FEF7B1
:101D0000A4FA3146FEF7DEFA01C4BF1CECE705B0C9
:101D1000F0BDC0460000204100400F4410B50C4605
:101D2000FFF792FF2046FFF7C5FF10BD80B500F01A
:101D300015F8FFF705FFFFF71BFF00280BD000F099
:101D400057F83220FFF7C1F80348FFF7AFFB4B20ED
:101D50008000FFF7BAF880BDA91A000870B586B0F8
:101D60006C4614212046FEF70CFA0126F0031449B4
:101D70000A6802430A60002222742F232380096824
:101D800001400591039201920E48029005980E4D74
:101D900028462146FEF74AFEE8683043E860286896
:101DA00030432860F00409490860FF200006084914
:101DB0000A688243B0071018086006B070BDC046BC
:101DC00040100240871300000020004000E100E0C6
:101DD00010E400E01CB5034601AA1170D6200124CE
:101DE00019462346FFF70CFB2046FFF761F81CBDA0
:101DF00010B57F20C105064C064A204601F07EF84A
:101E000001208107044A204601F078F810BDC04641
:101E1000000048426400002050000020F0B587B068
:101E20000446456828462946FEF70FFA064620680C
:101E300006900146FEF709FA3146FEF7ADF907466E
:101E4000A66830463146FEF700FA3946FEF7A4F997
:101E500001F08CFD0746CB49FEF772FA00240028FA
:101E600000D052E1C8493846FEF786FA002800D073
:101E70004BE130463946FEF725FAC44C0490206306
:101E800028463946FEF71EFA0646E06206983946AD
:101E90002746FEF717FA0446B8623F20010620469F
:101EA0000591FEF777FA002806D1BF2001062046EB
:101EB000FEF762FA002806D10120C0074440FE6107
:101EC0003C62002508E00020F861049C3C6201218E
:101ED000C90735464D4006467D6220462146FEF73D
:101EE000B4F9044630463146FEF7AFF92146FEF715
:101EF00053F9044628462946FEF7A7F92146FEF77E
:101F00004BF901F033FD0546F8692946FEF7DAF989
:101F10000690F861386A2946FEF7D4F9044638621B
:101F2000786A2946FEF7CEF904907862F96A029140
:101F3000FEF78BF90646396B03912046FEF785F9CB
:101F40003146FEF77AF901903861BE6A2046314683
:101F5000FEF77BF90090069D28460299FEF775F979
:101F60000099FEF76AF9B86104983146019EFEF7C0
:101F70006CF904902846039D2946FEF766F9014650
:101F80000498FEF75AF97861069420462946FEF730
:101F900003F9014634463046FEF7E0F9002847D001
:101FA00028462146FEF7F8F801460698FEF7D6F9CE
:101FB00000286CD006982146FEF7EEF80146284628
:101FC000FEF7CCF9002800D1A4E07F20C10520460F
:101FD000FEF7E2F801460698FEF7DEF801462846CD
:101FE000FEF7DAF801F0C2FC0599FEF72EF9044677
:101FF0003860F86A796AFEF720F905468120C10544
:102000002046FEF722F9044628462146FEF75AF9F3
:10201000AC4EF060B869B96AFEF70FF92146FEF7D9
:1020200051F93061F8697D692946FEF706F95FE0EC
:102030007F20C1052046FEF7AFF80699FEF7FDF8B0
:102040002946FEF7FAF801F091FC0599FEF7FDF834
:1020500004469C4EF060F86A796AFEF7EEF8054691
:102060008120C1052046FEF7F0F8044628462146A7
:10207000FEF728F938607D69F9692846FEF78CF883
:102080002146FEF71FF93061B869B96A2EE07F205A
:10209000C0052146FEF7D1F801460698FEF77CF808
:1020A0002946FEF7CAF801F061FC0599FEF7CDF864
:1020B0000446844E3061B869B96AFEF7BEF8054639
:1020C0008120C1052046FEF7C0F804462846214677
:1020D000FEF7F8F838607D69F9692846FEF75CF884
:1020E0002146FEF7EFF8F060786AF96AFEF754F8D7
:1020F0002146FEF7E7F870610124E007396A4140A4
:10210000284601F067F96F4948626E4844702046DE
:1021100007B0F0BD7F20C0052146FEF78EF8069976
:10212000FEF78BF801462846FEF736F801F01EFC54
:102130000599FEF78AF8044662484461F8697D69AA
:102140002946FEF77AF806468120C1052046FEF7AB
:102150007CF8044630462146FEF7B4F83860B8698A
:10216000B96AFEF719F82146FEF7ACF8554EF06053
:10217000786AF96AFEF710F82146FEF7A3F8306195
:10218000BAE7C0460AE89C400F5C6B41180000208B
:10219000F0B587B04B4C20690590656929460695D6
:1021A000FEF753F807460290E66847490968009130
:1021B00030460196FEF749F8044638462146FDF7B9
:1021C000EBFF0146FDF7E8FF3F49C862284631466C
:1021D000FEF73BF805460490059E3046009F3946C1
:1021E000FEF733F8014603902846FEF726F801462D
:1021F000FDF7D2FF344988620D4602982146FEF76A
:102200001CF80146FDF7C8FF68623046019E314662
:10221000FEF71BF8044606983946FEF716F80746FF
:1022200020463946FDF7B8FF0146FDF7B5FFE861E6
:1022300004980399FDF7B0FF0146FDF7ADFFA861D3
:1022400020463946FDF7F9FF0146FDF7A5FF2F4669
:10225000686105980146FDF7F8FF044630463146AF
:10226000FDF7F3FF064620463146FDF795FF014690
:10227000FDF792FF01467F20C5052846FDF7DDFFEB
:10228000386306980146FDF7E0FF07463146FDF743
:1022900083FF0146FDF780FF01462846FDF7CDFF8D
:1022A0000949086220463946FDF776FF0146FDF7E9
:1022B00073FF01462846FDF7C0FF0349086107B0D8
:1022C000F0BDC0462401002018000020F0B59BB0EE
:1022D0001093129107461068139000261A961996CB
:1022E000189617961696159678680146FDF7ADFF75
:1022F000044638680146FDF7A8FF2146FDF74CFF6C
:102300000446B8680146FDF7A0FF2146FDF744FFEB
:1023100001F02CFB05463C68786814901197BF6863
:102320002046394601F056F820462946FDF7CAFFF7
:10233000044614982946FDF7C5FF149038462946EF
:10234000FDF7C0FF054614980146FDF77EFF0746DE
:1023500020462146FDF779FF3946FDF71DFF04466B
:1023600028462946FDF771FF2146FDF715FF01F0CC
:10237000FDFA01461498FDF7A5FF00F09FFF3F20EE
:1023800001061398FDF761FF5F4FF97801291CD111
:10239000149021980E90209807903424129D119E3D
:1023A000402C28D018A8001934383119343909685C
:1023B00001603959281934380068FDF73EFF15A926
:1023C000091934390860241DEAE73878002801D05B
:1023D00000F074FC012E01D900F070FCBB680020F5
:1023E0000124394622469847761C38780528EDD1D5
:1023F000FC7000F063FC139E3046FEF729F804469B
:102400000D46424A424BFDF7E9FF002802D000206A
:10241000787075E0304600263146FDF79FFF0028B2
:1024200007D13A4A3B4B20462946FDF7C1FF002819
:1024300003D13948139039481490787800285FD038
:102440000F96199E30463146FDF7FFFE0446189858
:102450000D900146FDF7F9FE2146FDF79DFE04466D
:102460001A9D28462946FDF7F0FE2146FDF794FE09
:1024700001F07CFA04462A49FDF762FF002853D197
:1024800030462146FDF71EFF0646069028462146A7
:10249000FDF718FF01460590224DE86A0B90FDF705
:1024A000D4FE07462D6B30462946FDF7CEFE394651
:1024B000154FFDF7C2FE0C900D982146FDF702FF67
:1024C000044628462146FDF7C0FE05461548866AA3
:1024D00005983146FDF7B9FE2946FDF7AEFE0546E3
:1024E00030460699FDF7B1FE06460D9420460B993D
:1024F000FDF7ABFE3146FDF7A0FE09900C9818E001
:1025000018A8FFF78BFCAFE1240100209A99999954
:102510009999C93F9999B93F0AD7A33C0AD7233C57
:10252000DD0C7B3F18000020059506960F9809905A
:1025300005461E498C680C902146FDF786FE139EC9
:102540003146FDF782FEB969FDF726FE0890B861B5
:102550000B9528462146FDF778FE3146FDF775FEBE
:10256000F969FDF719FE0A90F86109982146FDF70F
:102570006CFE3146FDF769FE396AFDF70DFE3862E3
:102580000120C0070949CF683C4609904440159D89
:1025900028462146FDF7FEFE064628463946FDF749
:1025A000DDFE00280F9804D102E0C046180000208C
:1025B0002846002E00D128461390169D2846214615
:1025C000FDF7E8FE019028463946FDF7C7FE00906A
:1025D000179E30462146FDF7DDFE039004963046F7
:1025E0003946FDF7BBFE0290094844680C98214625
:1025F000FDF72BFE1399FDF7CFFD01460898FDF777
:10260000CBFD1390009800280F9E04D102E0C04635
:10261000180000202E46019800280B9800D12E4665
:102620002146FDF712FE3146FDF7B6FD01460A9838
:10263000FDF7B2FD0B4E35690C902946FDF705FEFE
:102640000446F1680B91099848401399FDF7FDFD88
:102650002146FDF7F2FD0746029800280F9904D1A4
:1026600002E0C0462401002004990398002800D10C
:1026700004997948406909900E460F91FDF7E5FDF0
:1026800001463846FDF7D9FD1499FDF7DEFD0146F8
:10269000724F3C6820460894FDF77EFD0490386038
:1026A00030462946FDF7D1FD0A9505462046139987
:1026B000FDF7CBFD2946FDF76FFD054609980C9EF9
:1026C0003146FDF7C2FD01462846FDF7B6FD149FD1
:1026D0003946FDF7BAFD01460B9D2846FDF75CFD26
:1026E0000F9C03905C49C86030462946FDF7ADFD5C
:1026F000054608982146FDF7A8FD2946FDF74CFD43
:1027000005460A98139E3146FDF79FFD014628466F
:10271000FDF793FD3946FDF798FD0146099F3846C0
:10272000FDF73AFD014602904B48416120460B9966
:10273000FDF78BFD054608980C99FDF786FD2946A7
:10274000FDF77BFD044638463146FDF77EFD214608
:10275000FDF722FD1499FDF778FD01460A98FDF773
:102760001BFD04463C48046103980146FDF76DFDDE
:10277000054604980146FDF768FD2946FDF70CFD66
:10278000054620462146FDF760FD2946FDF704FD7C
:10279000044602980146FDF758FD2146FDF7FCFC72
:1027A00001F0E4F804462D4D28682146FDF78AFD26
:1027B00028602948C0682146FDF784FD2649C86085
:1027C000254800692146FDF77DFD2349086122481F
:1027D00040692146FDF776FD1F494861FFF7D8FCA7
:1027E0001F49059C2046FDF730FD0646286B1D4914
:1027F000FDF72BFD3146FDF7CFFC01462046FDF7E6
:102800001CFDA96A1491EF6A0E9DA860069E3046D1
:102810001349FDF71AFD044638460F4F1149FDF7DD
:1028200014FD2146FDF7B8FC01463046FDF705FDD5
:1028300068600D9E30460A49FDF707FD044614986E
:102840000849FDF702FD2146FDF7A6FC014630468A
:10285000FDF7F3FC286007E02401002018000020A9
:10286000CCCC4C3ECDCC4C3FF14CE06A00F026FD88
:102870000646216BA06A00F0ADFDEE490F90FDF712
:10288000E4FC054601200290C007216A13904140F4
:102890006069344600F09EFD796AFDF7CEFC00F0D9
:1028A000CFFB0746109E7560E34D20462946FDF795
:1028B000CCFC30600E9738462946FDF7C6FC05462D
:1028C00000273946FDF74AFD0646DC492846FDF754
:1028D00063FC002E00D1284610998860D849204614
:1028E00088471490D74E2046B04709900F9D284640
:1028F000B04704462846D249884710900E9D284686
:10290000B04706462846CE498847054605941398A1
:102910004440099804942146FDF797FC06900F96D1
:102920003146FDF792FC044614982946FDF78DFCCC
:102930002146FDF731FC0446109E30460A95294693
:10294000FDF783FC054608942146FDF776FC044616
:1029500014983146FDF779FC014620460C91FDF7AD
:102960006CFC7F21C9050B91FDF716FC0446394626
:10297000FDF7F4FC0028384600D120467D21CC0527
:102980002146FDF762FCE64988470E9008982E46DE
:102990002946FDF752FC0C99FDF74FFC0B99FDF70A
:1029A000FBFB05463946FDF7D9FC0028384600D127
:1029B00028462146FDF749FCD94988470D90304605
:1029C0000899FDF7E9FB05460C982946FDF735FC0B
:1029D0000B99FDF7E1FB06463946FDF7BFFC0028E1
:1029E000384600D130462146FDF72FFCCC498847B8
:1029F0000890CC480E9901400E910D9901400D911F
:102A00000C982946FDF7C8FB0B99FDF7C5FB054659
:102A10003946FDF7A3FC0C9028462146FDF715FC2E
:102A2000039014980499FDF710FC0B900F99FDF793
:102A30000CFC0446099E30460A9D2946FDF705FC1C
:102A40002146FDF7FAFB044630461099FDF7FDFBE1
:102A50002146FDF7A1FB04460B982946FDF7F5FB3F
:102A6000054630460F99FDF7F0FB2946FDF794FB2C
:102A70000599FDF7E2FB139E30400D9940180D902B
:102A80000146FDF7E2FB054634400E9820180E90F3
:102A90000146FDF7DAFB2946FDF77EFB0B90089D0A
:102AA000A048054006980A99FDF7CFFB0446149804
:102AB0000F9E3146FDF7C9FB2146FDF7BEFB0446DC
:102AC00010983146FDF7C1FB2146FDF765FB1399D0
:102AD0000840451928462946FDF7B7FB0B99FDF735
:102AE0005BFB06460C980028384600D103988C49B9
:102AF000884704460146FDF7A8FB3146FDF74CFB2D
:102B000087498847064620463146FDF7DBFB079C90
:102B1000E06028463146FDF7D5FBA0600D983146B0
:102B2000FDF7D0FB60600E983146FDF7CBFB2060CF
:102B3000119D68680146FDF788FB04462868014638
:102B4000FDF783FB2146FDF727FB0446A8680146F5
:102B5000FDF77BFB2146FDF71FFB714EB04714903C
:102B6000129C60680146FDF770FB0546206801462F
:102B7000FDF76BFB2946FDF70FFB0546A0680146F4
:102B8000FDF763FB2946FDF707FBB04713902320B1
:102B9000C54311953E46002D12D060484019416F43
:102BA000016761484019846A44623846FDF7F4FAC7
:102BB000074630462146FDF7EFFA06462D1DEAE7A7
:102BC0005948139C44625548149901670846394690
:102BD000FDF7E2FA554F3946FDF774FB1490204695
:102BE0003146FDF7D9FA3946FDF76CFB074600265A
:102BF0004C243546742C27D0484800591499FDF7C9
:102C00001CFB0146FDF721FB3146FDF7C5FA0646E0
:102C1000454800194C3800683946FDF70EFB01465F
:102C2000FDF713FB2946FDF7B7FA0546241DE1E73A
:102C300018000020E12E65C2E12E65420000B44379
:102C400071360008E9370008384C30462146FDF758
:102C500039FB00F08BFE064628462146FDF732FB85
:102C600000F084FE044632493046FDF785FB00281B
:102C70001ED130492046FDF77FFB002818D1274F91
:102C8000F86A00281CD0B878012817D0BC88002C1E
:102C900021D01E2C28D84025129E4C2D33D0795996
:102CA000701940380068FDF777FA78512D1DF4E768
:102CB00000201A498862C862888088701BB0F0BD05
:102CC000B86A1D2802D8401CB862F7E70020B86235
:102CD0000298F862F2E740204C2803D000213950D6
:102CE000001DF9E702980FE01F2CE7D1119E18365E
:102CF000114C002E0AD0BD19E86C2146FDF7E2FA0E
:102D00002864361DF5E7601CB880D7E70020B8615D
:102D1000F8613862B8800298B870CFE724010020CB
:102D20006D390008FFFFFF7F58060020000020419A
:102D30000AD7233D022B873C0000F041514908701F
:102D400000224A60002800D0052048707047C04625
:102D5000F0B587B0214D2868042108432860286811
:102D6000084001900198032080031D490A688243AE
:102D70000126B003101808608020886201AC14217D
:102D80002046FDF7FEF9F002E9680143E9600027FB
:102D900027742F212180E96801400691049702974A
:102DA000FF2000909030039006980E4D2846214653
:102DB000FDF73CFEE8683043E8602868304328604F
:102DC0007003094908600098000208490A688243B4
:102DD0000A601848077207B0F0BDC04634100240C0
:102DE00000040050002C014000E100E00CE400E091
:102DF000F8B5104C277A002F10D10D460646094829
:102E0000E221FDF7BEF930462946064D2A46FEF777
:102E1000DBFD002802D101202072E5607842784174
:102E2000F8BDC0469C0600200248007A411E884139
:102E30007047C0469000002010B5124C2078002842
:102E400017D060681049FEF7A5F900280ED0294870
:102E50000921FFF7CDFF002808D0FEF77DF90121F9
:102E6000014361606078401E607000E06078000699
:102E700000D010BDFFF7D8FF0028FAD10020207045
:102E800010BDC04694060020A086010083B018B58E
:102E9000044603A80EC003A8009000206A462146FD
:102EA000FDF758FE18BC02BC03B008470178427811
:102EB0004A4081785140C2784A40113202717047CD
:102EC000B0B50C460546FEF739FD0A484471057158
:102ED00009498A788271C978C171C178F0220A40A3
:102EE000511CC170001DFFF7E1FF0120FFF726FF15
:102EF000B0BDC0468806002050060020FEB50292F4
:102F0000FDF7E0F901465E48FDF7DCF900F044FD0D
:102F100004461D49FDF799F97F21C9050191FDF787
:102F20003BF9054620462146FDF78FF9074629461D
:102F3000FDF732F9064638463146FDF7C3F9054636
:102F400002980561856011492046FDF77EF90199D7
:102F5000FDF722F901463846FDF71EF93146FDF727
:102F6000B1F9029C60600A493846FDF715F901463F
:102F7000FDF712F93146FDF7A5F9206028462946EC
:102F8000FDF70AF9E060FEBDF304B53FF304B5BFF9
:102F9000000080BF03480449416000218160052191
:102FA0000160704710E000E0FFFFFF0080B50720E0
:102FB0000921FEF7E1FB002801D0F1200EE00920F5
:102FC0000D21FEF7D9FB002801D0F22006E00E20EB
:102FD0001021FEF7D1FB002803D013200021FFF7BA
:102FE0006FFF80BD80B507200921FEF7C5FB0028D3
:102FF0000BD109200D21FEF7BFFB002805D10E20C3
:103000001021FEF7B9FB002802D0FEF797FC80BD27
:10301000FEF778FC80BD80B5FDF720FBFFF7BAFF17
:10302000FEF70EF9FEF774FCFEF7C0F8FEF77EFE21
:10303000FEF7FAF8FEF72CFCFFF78AFE80BD0000D1
:1030400070B504460E4D114E20462946FDF7A2F9F3
:10305000002805D020463146FDF79EF80446F3E7E8
:10306000084D094E20462946FDF786F9002805D16E
:1030700020463146FDF790F80446F3E7204670BD40
:10308000DB0F4940DB0F49C0DB0FC940DB0FC9C074
:10309000F0B4040C8BB2264682B25E430D0C10468F
:1030A000370C5843360480190021794116466E4387
:1030B000370C36048019794126466E438919F0BCD5
:1030C00070474100080200D004200A0E01D00122FE
:1030D0001043090EFF2901D102210843012800D124
:1030E0000520704710B50121FDF747FA10BD10B556
:1030F000FDF752F810BD10B500210846FDF7E2F8C3
:1031000010BD5E2110B5C9430807FDF736FA10BDA2
:10311000F0B50E4614465100FF22120687B09142C8
:1031200003D31116316007B0F0BD01202502C0079E
:103130000543E00D7838C206D20E2020871A6000C1
:10314000000E7838401181004D4878440B189C4699
:103150004358002A14D06046406893400146F84026
:1031600003436046806891408646F84001430391DE
:1031700060467146C0689140F84001430F4603E045
:10318000604641680391876818462946FFF780FF2B
:103190000291049029460398FFF77AFF0391069065
:1031A00038462946FFF774FF0F460698029B3D18E4
:1031B000049A0399BD4201D2012700E00027881834
:1031C000C019002F02D0884202D903E0884201D200
:1031D000012100E0002159180A4620329709C20C4B
:1031E0008906520340033760114301900846FDF7FA
:1031F0000BF902900198FDF729FA1221C943FDF756
:10320000BCF901902846FDF721FA2521C943FDF7B5
:10321000B4F9009001990298FCF7BEFF0099FCF701
:10322000BBFF0121C9024018050B2D032846029956
:10323000FDF703F80199FDF700F80099FDF701F893
:103240001049FDF702F800900F492846FCF7FDFFF2
:103250000099FCF7A1FF00900C492846FCF7F5FF08
:103260000099FCF799FF002C00DB5CE701210907BE
:10327000C91B31600121C907484007B0F0BD0000FB
:10328000BA090000DB0FC92F22AAFD290000C92FAF
:1032900002E008C8121F08C1002AFAD1704770471F
:1032A000002001E001C1121F002AFBD1704700007D
:1032B000014908607047000000000020F8B504468E
:1032C0004721400049060D2241181206914253D869
:1032D0003F21490688421BD960007F214008C9056B
:1032E000FCF7AFFF0021C943FDF747F9074600F09F
:1032F0003DFB002C04DA2F4D2D4EA907484001E07C
:103300002D4E2E4D03218907FCF79FFF044606E052
:103310000026214635460846FCF797FF0746284910
:103320003846FCF792FF2749FCF736FF3946FCF791
:103330008CFF2549FCF730FF3946FCF786FF23490F
:10334000FCF72AFF3946FCF780FF2149FCF724FFF0
:10335000009039462046FCF778FF0099FCF775FF8E
:10336000074629462046FCF717FF3946FCF714FFAD
:103370003146FCF711FFF8BD39214906884208D2D1
:103380002046FFF79EFE042801D1FFF7BAFE204633
:10339000F8BDFF210906884203D92046FFF7A2FEA7
:1033A000F8BD0120FFF784FFFFF7A5FEF8BD000080
:1033B0000000C9BF22AAFDB90000C93F22AAFD39F9
:1033C00024FE1C3DC78AD83C1E67383D1B93993D9F
:1033D000AFAA2A3EF0B50C4601461D224B00D2068C
:1033E0009F18E52605463606620087B02046B7429C
:1033F0007BD21D27FF06D719B74276D24F00430074
:103400003E0E1A0EB21A1B2A07DD002902DA854881
:1034100007B0F0BD844807B0F0BD1A26F2422FDA9B
:10342000002807DA002902DA804807B0F0BD80489A
:1034300007B0F0BD21462846FCF744FF0646FFF7DB
:1034400040FE042801D1FFF75CFE2846FFF739FE55
:1034500005462046FFF735FE04463046FFF731FEAD
:10346000042D01D0052D08D1042C01D0052C04D148
:10347000002802D10220FFF71BFF304607B0F0BD45
:103480009F4211D9002902DA6A4F6B4E01E06B4F5F
:103490006B4E23462C461D4601220346D2070846A2
:1034A0005440504019460BE0002807DA002902DAA0
:1034B000644F654E04E0654F654E01E000263746D7
:1034C000421A012352001B069A422FD248406149FA
:1034D0000CD5BF20000602903846FCF7AEFE07462A
:1034E0005D493046FCF7A9FE0BE053E03F200006A3
:1034F00002903846FCF750FE074657493046FCF725
:103500004BFE064628460299FCF79FFE2146FCF733
:1035100043FE009021460298FCF797FE2946FCF7EF
:1035200090FE0099FCF7CEFE044604E021462846B2
:10353000FCF7C8FE04460146FCF787FE47490090A9
:10354000FCF783FE4649FCF727FE0099FCF77DFE59
:103550004449FCF721FE0099FCF777FE4249FCF74D
:103560001BFE0099FCF771FE4049FCF715FE05466D
:1035700020460099FCF769FE2946FCF766FE3146B5
:10358000FCF70AFE2146FCF707FE3946FCF704FE6D
:1035900007B0F0BDFF263606B34201D8B24205D9C6
:1035A00001462846FFF7A3FD07B0F0BD2F460743AD
:1035B0007F000AD0B3420CD1B2420AD10122920755
:1035C000904391430D46044618E7FF22D20510436D
:1035D000F9E7B3420CD047000AD0B2420ED04E00F9
:1035E0000CD05340F0D4002A0EDB9F26F6050DE0E8
:1035F000FF22D2051143E00FC007FFE6C90FC9073C
:10360000FF22D2051043F9E65F26F605314628462B
:10361000FCF71BFE054631462046FCF716FE044625
:103620002946EBE6DB0FC9BFDB0FC93FDB0F49C003
:10363000DB0F49400000C9BF22AAFDB90000C93F05
:1036400022AAFD39000049C022AA7DBA00004940E3
:1036500022AA7D3A0060ED3EC30ACE372DAD65BD8E
:103660008FB8D53D0FB511BE61C84C3EA8AAAABE01
:10367000F0B5024604464E4B83B04000694698427E
:1036800009D273210906884202D20020C04300E01B
:103690000020009030E05000464B400898426CD229
:1036A00045491046FCF7D1FDFCF79FFF0746FCF7A4
:1036B000B6FE8007800F009040493846FCF7C5FDF4
:1036C00001903F493846FCF7C0FD06463D49384663
:1036D000FCF7BBFD05463C493846FCF7B6FD2146E4
:1036E000FCF7AFFD2946FCF7A8FD3146FCF7A5FD28
:1036F0000199FCF7A2FD044625467F27009CFF05A3
:10370000002C3EDBE007314E294608461BD0FCF773
:103710009CFD07462E49FCF798FD2E49FCF73CFD21
:103720003946FCF792FD2C49FCF736FD3946FCF78B
:103730008CFD2946FCF789FD2946FCF72DFDA107E4
:1037400018D503B0F0BDFCF780FD05462349FCF712
:103750007CFD2349FCF720FD2946FCF776FD214935
:10376000FCF71AFD2946FCF770FD3946FCF714FDFD
:10377000A107E6D5704003B0F0BD1046FFF7C8FCC6
:10378000B9E7FF2168000906884202D2384603B033
:10379000F0BD884206D10120FFF78AFDFFF7ABFCA0
:1037A00003B0F0BD2846FFF79DFC03B0F0BD00005C
:1037B000B61F927E490E494683F9223F1A61342C86
:1037C0000020A23300A0FD390000C93F00000080A6
:1037D000336D4CB9DA82083CA0AA2ABEB93AB2BA13
:1037E000CA9F2A3DDDFFFFBEF0B502460446514B9D
:1037F00083B040006946984209D273210906884285
:1038000002D20020C04300E00020009030E05000D1
:10381000494B400898426BD248491046FCF715FDC9
:10382000FCF7E3FE0746FCF7FAFD8007800F0090E7
:1038300043493846FCF709FD019042493846FCF7F8
:1038400004FD064640493846FCF7FFFC05463F4963
:103850003846FCF7FAFC2146FCF7F3FC2946FCF756
:10386000ECFC3146FCF7E9FC0199FCF7E6FC044668
:103870002546009C002C3FDBE007354E29460846D4
:103880001AD0FCF7E2FC05463249FCF7DEFC32496F
:10389000FCF782FC2946FCF7D8FC3049FCF77CFC9D
:1038A0002946FCF7D2FC7F21C905FCF775FCA1076E
:1038B00000D5704003B0F0BDFCF7C7FC07462849AF
:1038C000FCF7C3FC2749FCF767FC3946FCF7BDFC55
:1038D0002549FCF761FC3946FCF7B7FC2946FCF7A3
:1038E000B4FC2946FCF758FCA107E2D403B0F0BDB4
:1038F0001046FFF70DFCBAE7FF2168000906884271
:1039000009D22846FFF7DDFB042801D1FFF7F9FBB8
:10391000284603B0F0BD884206D10120FFF7C8FC5D
:10392000FFF7E9FB03B0F0BD2846FFF7DBFB03B070
:10393000F0BD0000B61F927E490E494683F9223F32
:103940001A61342C0020A23300A0FD390000C93FC9
:1039500000000080B93AB2BACA9F2A3DDDFFFFBE1F
:10396000336D4CB9DA82083CA0AA2ABE70B5054670
:10397000FCF70FFE41000446FF204908C005411A2C
:10398000C90F07D069004908401AC00F02D10120B1
:10399000FFF78EFC204670BDF0B5024604464C4B46
:1039A00083B040006946984209D2732109068842D3
:1039B00002D20020C04300E00020009030E0500020
:1039C000444B4008984262D243491046FCF73DFC04
:1039D000FCF70BFE0746FCF722FD8007800F0090E6
:1039E0003E493846FCF731FC01903D493846FCF72A
:1039F0002CFC06463B493846FCF727FC05463A496D
:103A00003846FCF722FC2146FCF71BFC2946FCF754
:103A100014FC3146FCF711FC0199FCF70EFC04463E
:103A2000009D002D37DB21460846FCF70EFC0646BC
:103A30002E49FCF70AFC2E49FCF7AEFB3146FCF799
:103A400004FC2C49FCF7A8FB3146FCF7FEFB2A4995
:103A5000FCF7A2FB3146FCF7F8FB2849FCF79CFB7E
:103A60003146FCF7F2FB2649FCF796FB3146FCF7A2
:103A7000ECFB2146FCF7E9FB2146FCF78DFBE9074F
:103A800003D001461F48FCF71DFC03B0F0BD1046F3
:103A9000FFF73EFBC3E7FF2160000906884209D219
:103AA0002046FFF70EFB042801D1FFF72AFB204632
:103AB00003B0F0BD884206D10120FFF7F9FBFFF704
:103AC0001AFB03B0F0BD2046FFF70CFB03B0F0BDBE
:103AD000B61F927E490E494683F9223F1A61342C63
:103AE0000020A23300A0FD390000C93FBCE9223C00
:103AF0000B6D063B8A76CE3CACB5593D35A1083EF0
:103B000029AAAA3E000080BF000000006E83F9A22F
:103B10002915444ED15727FCC0DD34F5999562DB59
:103B20004190433CAB6351FE0000000000000000E8
:103B30000000000000000000000000000000000085
:103B40000000000000000000010000000200000072
:103B50000300000004000000060000000700000051
:103B60000800000009000000000000000000000044
:103B70000000000000000000010000000200000042
:103B8000030000000400000000093D0000127A005C
:103B9000000000000000000000366E010000000080
:103BA0000000000000000000FFFFFFFF040A050006
:103BB00020004000800010000102030405060708F1
:103BC000090A0B120D0F1011070003000F00080067
:103BD000050002000100090006000D000E000C00A7
:103BE0000A0010000B00040001000200020820047B
:103BF0005465726D696E616C00000000203C000825
:103C0000000000207800000090320008983C000876
:103C100078000020080B0000A0320008000000001F
:103C2000000000000AD7233C0000803F0000000095
:103C300000000000000000000000803F9A99993EBB
:103C40008FC2F53C0AD7A33B0000803F0000000074
:103C500000000000000000000000803F00000000A5
:103C600000000000000000000000803F00366E01F0
:103C700071CFC7BF9E2F243FDF85A43CDF85243D45
:103C8000DF85A43C1B6F3FBFC25F8B3EC640063E34
:083C9000C640863EC640063E18
:04000005080000C12E
:00000001FF
